{
	"Auth.sol/Authentication.sol": {
		"OTPSystem": {
			"abi": [
				{
					"anonymous": false,
					"inputs": [
						{
							"indexed": true,
							"internalType": "address",
							"name": "user",
							"type": "address"
						},
						{
							"indexed": false,
							"internalType": "uint256",
							"name": "otp",
							"type": "uint256"
						}
					],
					"name": "OtpGenerated",
					"type": "event"
				},
				{
					"anonymous": false,
					"inputs": [
						{
							"indexed": true,
							"internalType": "address",
							"name": "user",
							"type": "address"
						},
						{
							"indexed": false,
							"internalType": "bool",
							"name": "success",
							"type": "bool"
						}
					],
					"name": "UserAuthenticated",
					"type": "event"
				},
				{
					"anonymous": false,
					"inputs": [
						{
							"indexed": true,
							"internalType": "address",
							"name": "user",
							"type": "address"
						},
						{
							"indexed": false,
							"internalType": "string",
							"name": "username",
							"type": "string"
						}
					],
					"name": "UserRegistered",
					"type": "event"
				},
				{
					"inputs": [
						{
							"internalType": "uint256",
							"name": "_otp",
							"type": "uint256"
						}
					],
					"name": "authenticate",
					"outputs": [
						{
							"internalType": "bool",
							"name": "",
							"type": "bool"
						}
					],
					"stateMutability": "nonpayable",
					"type": "function"
				},
				{
					"inputs": [],
					"name": "generateOtp",
					"outputs": [
						{
							"internalType": "uint256",
							"name": "",
							"type": "uint256"
						}
					],
					"stateMutability": "nonpayable",
					"type": "function"
				},
				{
					"inputs": [
						{
							"internalType": "address",
							"name": "",
							"type": "address"
						}
					],
					"name": "lastOtpGenerated",
					"outputs": [
						{
							"internalType": "uint256",
							"name": "",
							"type": "uint256"
						}
					],
					"stateMutability": "view",
					"type": "function"
				},
				{
					"inputs": [
						{
							"internalType": "string",
							"name": "_username",
							"type": "string"
						},
						{
							"internalType": "uint256",
							"name": "_otpSeed",
							"type": "uint256"
						}
					],
					"name": "register",
					"outputs": [],
					"stateMutability": "nonpayable",
					"type": "function"
				},
				{
					"inputs": [
						{
							"internalType": "address",
							"name": "",
							"type": "address"
						}
					],
					"name": "users",
					"outputs": [
						{
							"internalType": "string",
							"name": "username",
							"type": "string"
						},
						{
							"internalType": "address",
							"name": "publicKey",
							"type": "address"
						},
						{
							"internalType": "uint256",
							"name": "otpSeed",
							"type": "uint256"
						},
						{
							"internalType": "uint256",
							"name": "lastOtpTimestamp",
							"type": "uint256"
						}
					],
					"stateMutability": "view",
					"type": "function"
				}
			],
			"devdoc": {
				"kind": "dev",
				"methods": {},
				"version": 1
			},
			"evm": {
				"assembly": "    /* \"Auth.sol/Authentication.sol\":121:1993  contract OTPSystem {... */\n  mstore(0x40, 0x80)\n  callvalue\n  dup1\n  iszero\n  tag_1\n  jumpi\n  0x00\n  dup1\n  revert\ntag_1:\n  pop\n  dataSize(sub_0)\n  dup1\n  dataOffset(sub_0)\n  0x00\n  codecopy\n  0x00\n  return\nstop\n\nsub_0: assembly {\n        /* \"Auth.sol/Authentication.sol\":121:1993  contract OTPSystem {... */\n      mstore(0x40, 0x80)\n      callvalue\n      dup1\n      iszero\n      tag_1\n      jumpi\n      0x00\n      dup1\n      revert\n    tag_1:\n      pop\n      jumpi(tag_2, lt(calldatasize, 0x04))\n      shr(0xe0, calldataload(0x00))\n      dup1\n      0x195ad926\n      eq\n      tag_3\n      jumpi\n      dup1\n      0x405efc15\n      eq\n      tag_4\n      jumpi\n      dup1\n      0x7b0be3d7\n      eq\n      tag_5\n      jumpi\n      dup1\n      0xa87430ba\n      eq\n      tag_6\n      jumpi\n      dup1\n      0xea87152b\n      eq\n      tag_7\n      jumpi\n    tag_2:\n      0x00\n      dup1\n      revert\n        /* \"Auth.sol/Authentication.sol\":1641:1990  function authenticate(uint256 _otp) public onlyRegistered returns (bool) {... */\n    tag_3:\n      tag_8\n      0x04\n      dup1\n      calldatasize\n      sub\n      dup2\n      add\n      swap1\n      tag_9\n      swap2\n      swap1\n      tag_10\n      jump\t// in\n    tag_9:\n      tag_11\n      jump\t// in\n    tag_8:\n      mload(0x40)\n      tag_12\n      swap2\n      swap1\n      tag_13\n      jump\t// in\n    tag_12:\n      mload(0x40)\n      dup1\n      swap2\n      sub\n      swap1\n      return\n        /* \"Auth.sol/Authentication.sol\":1078:1633  function generateOtp() public onlyRegistered returns (uint256) {... */\n    tag_4:\n      tag_14\n      tag_15\n      jump\t// in\n    tag_14:\n      mload(0x40)\n      tag_16\n      swap2\n      swap1\n      tag_17\n      jump\t// in\n    tag_16:\n      mload(0x40)\n      dup1\n      swap2\n      sub\n      swap1\n      return\n        /* \"Auth.sol/Authentication.sol\":369:420  mapping(address => uint256) public lastOtpGenerated */\n    tag_5:\n      tag_18\n      0x04\n      dup1\n      calldatasize\n      sub\n      dup2\n      add\n      swap1\n      tag_19\n      swap2\n      swap1\n      tag_20\n      jump\t// in\n    tag_19:\n      tag_21\n      jump\t// in\n    tag_18:\n      mload(0x40)\n      tag_22\n      swap2\n      swap1\n      tag_17\n      jump\t// in\n    tag_22:\n      mload(0x40)\n      dup1\n      swap2\n      sub\n      swap1\n      return\n        /* \"Auth.sol/Authentication.sol\":325:362  mapping(address => User) public users */\n    tag_6:\n      tag_23\n      0x04\n      dup1\n      calldatasize\n      sub\n      dup2\n      add\n      swap1\n      tag_24\n      swap2\n      swap1\n      tag_20\n      jump\t// in\n    tag_24:\n      tag_25\n      jump\t// in\n    tag_23:\n      mload(0x40)\n      tag_26\n      swap5\n      swap4\n      swap3\n      swap2\n      swap1\n      tag_27\n      jump\t// in\n    tag_26:\n      mload(0x40)\n      dup1\n      swap2\n      sub\n      swap1\n      return\n        /* \"Auth.sol/Authentication.sol\":764:1070  function register(string memory _username, uint256 _otpSeed) public {... */\n    tag_7:\n      tag_28\n      0x04\n      dup1\n      calldatasize\n      sub\n      dup2\n      add\n      swap1\n      tag_29\n      swap2\n      swap1\n      tag_30\n      jump\t// in\n    tag_29:\n      tag_31\n      jump\t// in\n    tag_28:\n      stop\n        /* \"Auth.sol/Authentication.sol\":1641:1990  function authenticate(uint256 _otp) public onlyRegistered returns (bool) {... */\n    tag_11:\n        /* \"Auth.sol/Authentication.sol\":1708:1712  bool */\n      0x00\n        /* \"Auth.sol/Authentication.sol\":711:712  0 */\n      dup1\n        /* \"Auth.sol/Authentication.sol\":674:679  users */\n      0x00\n        /* \"Auth.sol/Authentication.sol\":674:691  users[msg.sender] */\n      dup1\n        /* \"Auth.sol/Authentication.sol\":680:690  msg.sender */\n      caller\n        /* \"Auth.sol/Authentication.sol\":674:691  users[msg.sender] */\n      0xffffffffffffffffffffffffffffffffffffffff\n      and\n      0xffffffffffffffffffffffffffffffffffffffff\n      and\n      dup2\n      mstore\n      0x20\n      add\n      swap1\n      dup2\n      mstore\n      0x20\n      add\n      0x00\n      keccak256\n        /* \"Auth.sol/Authentication.sol\":674:700  users[msg.sender].username */\n      0x00\n      add\n        /* \"Auth.sol/Authentication.sol\":668:708  bytes(users[msg.sender].username).length */\n      dup1\n      sload\n      tag_33\n      swap1\n      tag_34\n      jump\t// in\n    tag_33:\n      swap1\n      pop\n        /* \"Auth.sol/Authentication.sol\":668:712  bytes(users[msg.sender].username).length > 0 */\n      gt\n        /* \"Auth.sol/Authentication.sol\":660:736  require(bytes(users[msg.sender].username).length > 0, \"User not registered\") */\n      tag_35\n      jumpi\n      mload(0x40)\n      0x08c379a000000000000000000000000000000000000000000000000000000000\n      dup2\n      mstore\n      0x04\n      add\n      tag_36\n      swap1\n      tag_37\n      jump\t// in\n    tag_36:\n      mload(0x40)\n      dup1\n      swap2\n      sub\n      swap1\n      revert\n    tag_35:\n        /* \"Auth.sol/Authentication.sol\":1789:1799  30 seconds */\n      0x1e\n        /* \"Auth.sol/Authentication.sol\":1752:1757  users */\n      0x00\n        /* \"Auth.sol/Authentication.sol\":1752:1769  users[msg.sender] */\n      dup1\n        /* \"Auth.sol/Authentication.sol\":1758:1768  msg.sender */\n      caller\n        /* \"Auth.sol/Authentication.sol\":1752:1769  users[msg.sender] */\n      0xffffffffffffffffffffffffffffffffffffffff\n      and\n      0xffffffffffffffffffffffffffffffffffffffff\n      and\n      dup2\n      mstore\n      0x20\n      add\n      swap1\n      dup2\n      mstore\n      0x20\n      add\n      0x00\n      keccak256\n        /* \"Auth.sol/Authentication.sol\":1752:1786  users[msg.sender].lastOtpTimestamp */\n      0x03\n      add\n      sload\n        /* \"Auth.sol/Authentication.sol\":1752:1799  users[msg.sender].lastOtpTimestamp + 30 seconds */\n      tag_39\n      swap2\n      swap1\n      tag_40\n      jump\t// in\n    tag_39:\n        /* \"Auth.sol/Authentication.sol\":1733:1748  block.timestamp */\n      timestamp\n        /* \"Auth.sol/Authentication.sol\":1733:1799  block.timestamp <= users[msg.sender].lastOtpTimestamp + 30 seconds */\n      gt\n      iszero\n        /* \"Auth.sol/Authentication.sol\":1725:1815  require(block.timestamp <= users[msg.sender].lastOtpTimestamp + 30 seconds, \"OTP expired\") */\n      tag_41\n      jumpi\n      mload(0x40)\n      0x08c379a000000000000000000000000000000000000000000000000000000000\n      dup2\n      mstore\n      0x04\n      add\n      tag_42\n      swap1\n      tag_43\n      jump\t// in\n    tag_42:\n      mload(0x40)\n      dup1\n      swap2\n      sub\n      swap1\n      revert\n    tag_41:\n        /* \"Auth.sol/Authentication.sol\":1826:1846  bool isAuthenticated */\n      0x00\n        /* \"Auth.sol/Authentication.sol\":1882:1886  _otp */\n      dup3\n        /* \"Auth.sol/Authentication.sol\":1850:1866  lastOtpGenerated */\n      0x01\n        /* \"Auth.sol/Authentication.sol\":1850:1878  lastOtpGenerated[msg.sender] */\n      0x00\n        /* \"Auth.sol/Authentication.sol\":1867:1877  msg.sender */\n      caller\n        /* \"Auth.sol/Authentication.sol\":1850:1878  lastOtpGenerated[msg.sender] */\n      0xffffffffffffffffffffffffffffffffffffffff\n      and\n      0xffffffffffffffffffffffffffffffffffffffff\n      and\n      dup2\n      mstore\n      0x20\n      add\n      swap1\n      dup2\n      mstore\n      0x20\n      add\n      0x00\n      keccak256\n      sload\n        /* \"Auth.sol/Authentication.sol\":1850:1886  lastOtpGenerated[msg.sender] == _otp */\n      eq\n        /* \"Auth.sol/Authentication.sol\":1826:1887  bool isAuthenticated = (lastOtpGenerated[msg.sender] == _otp) */\n      swap1\n      pop\n        /* \"Auth.sol/Authentication.sol\":1921:1931  msg.sender */\n      caller\n        /* \"Auth.sol/Authentication.sol\":1903:1949  UserAuthenticated(msg.sender, isAuthenticated) */\n      0xffffffffffffffffffffffffffffffffffffffff\n      and\n      0x297fcf4a80c00fc75b80bbe3ce4f2c31caaaeee3f0b636677d53ed059538e1dd\n        /* \"Auth.sol/Authentication.sol\":1933:1948  isAuthenticated */\n      dup3\n        /* \"Auth.sol/Authentication.sol\":1903:1949  UserAuthenticated(msg.sender, isAuthenticated) */\n      mload(0x40)\n      tag_44\n      swap2\n      swap1\n      tag_13\n      jump\t// in\n    tag_44:\n      mload(0x40)\n      dup1\n      swap2\n      sub\n      swap1\n      log2\n        /* \"Auth.sol/Authentication.sol\":1967:1982  isAuthenticated */\n      dup1\n        /* \"Auth.sol/Authentication.sol\":1960:1982  return isAuthenticated */\n      swap2\n      pop\n      pop\n        /* \"Auth.sol/Authentication.sol\":1641:1990  function authenticate(uint256 _otp) public onlyRegistered returns (bool) {... */\n      swap2\n      swap1\n      pop\n      jump\t// out\n        /* \"Auth.sol/Authentication.sol\":1078:1633  function generateOtp() public onlyRegistered returns (uint256) {... */\n    tag_15:\n        /* \"Auth.sol/Authentication.sol\":1132:1139  uint256 */\n      0x00\n        /* \"Auth.sol/Authentication.sol\":711:712  0 */\n      dup1\n        /* \"Auth.sol/Authentication.sol\":674:679  users */\n      0x00\n        /* \"Auth.sol/Authentication.sol\":674:691  users[msg.sender] */\n      dup1\n        /* \"Auth.sol/Authentication.sol\":680:690  msg.sender */\n      caller\n        /* \"Auth.sol/Authentication.sol\":674:691  users[msg.sender] */\n      0xffffffffffffffffffffffffffffffffffffffff\n      and\n      0xffffffffffffffffffffffffffffffffffffffff\n      and\n      dup2\n      mstore\n      0x20\n      add\n      swap1\n      dup2\n      mstore\n      0x20\n      add\n      0x00\n      keccak256\n        /* \"Auth.sol/Authentication.sol\":674:700  users[msg.sender].username */\n      0x00\n      add\n        /* \"Auth.sol/Authentication.sol\":668:708  bytes(users[msg.sender].username).length */\n      dup1\n      sload\n      tag_46\n      swap1\n      tag_34\n      jump\t// in\n    tag_46:\n      swap1\n      pop\n        /* \"Auth.sol/Authentication.sol\":668:712  bytes(users[msg.sender].username).length > 0 */\n      gt\n        /* \"Auth.sol/Authentication.sol\":660:736  require(bytes(users[msg.sender].username).length > 0, \"User not registered\") */\n      tag_47\n      jumpi\n      mload(0x40)\n      0x08c379a000000000000000000000000000000000000000000000000000000000\n      dup2\n      mstore\n      0x04\n      add\n      tag_48\n      swap1\n      tag_37\n      jump\t// in\n    tag_48:\n      mload(0x40)\n      dup1\n      swap2\n      sub\n      swap1\n      revert\n    tag_47:\n        /* \"Auth.sol/Authentication.sol\":1152:1169  User storage user */\n      0x00\n        /* \"Auth.sol/Authentication.sol\":1172:1177  users */\n      dup1\n        /* \"Auth.sol/Authentication.sol\":1172:1189  users[msg.sender] */\n      0x00\n        /* \"Auth.sol/Authentication.sol\":1178:1188  msg.sender */\n      caller\n        /* \"Auth.sol/Authentication.sol\":1172:1189  users[msg.sender] */\n      0xffffffffffffffffffffffffffffffffffffffff\n      and\n      0xffffffffffffffffffffffffffffffffffffffff\n      and\n      dup2\n      mstore\n      0x20\n      add\n      swap1\n      dup2\n      mstore\n      0x20\n      add\n      0x00\n      keccak256\n        /* \"Auth.sol/Authentication.sol\":1152:1189  User storage user = users[msg.sender] */\n      swap1\n      pop\n        /* \"Auth.sol/Authentication.sol\":1200:1219  uint256 currentTime */\n      0x00\n        /* \"Auth.sol/Authentication.sol\":1222:1237  block.timestamp */\n      timestamp\n        /* \"Auth.sol/Authentication.sol\":1200:1237  uint256 currentTime = block.timestamp */\n      swap1\n      pop\n        /* \"Auth.sol/Authentication.sol\":1294:1304  30 seconds */\n      0x1e\n        /* \"Auth.sol/Authentication.sol\":1270:1274  user */\n      dup3\n        /* \"Auth.sol/Authentication.sol\":1270:1291  user.lastOtpTimestamp */\n      0x03\n      add\n      sload\n        /* \"Auth.sol/Authentication.sol\":1270:1304  user.lastOtpTimestamp + 30 seconds */\n      tag_50\n      swap2\n      swap1\n      tag_40\n      jump\t// in\n    tag_50:\n        /* \"Auth.sol/Authentication.sol\":1256:1267  currentTime */\n      dup2\n        /* \"Auth.sol/Authentication.sol\":1256:1304  currentTime > user.lastOtpTimestamp + 30 seconds */\n      gt\n        /* \"Auth.sol/Authentication.sol\":1248:1351  require(currentTime > user.lastOtpTimestamp + 30 seconds, \"OTP can only be generated every 30 seconds\") */\n      tag_51\n      jumpi\n      mload(0x40)\n      0x08c379a000000000000000000000000000000000000000000000000000000000\n      dup2\n      mstore\n      0x04\n      add\n      tag_52\n      swap1\n      tag_53\n      jump\t// in\n    tag_52:\n      mload(0x40)\n      dup1\n      swap2\n      sub\n      swap1\n      revert\n    tag_51:\n        /* \"Auth.sol/Authentication.sol\":1364:1375  uint256 otp */\n      0x00\n        /* \"Auth.sol/Authentication.sol\":1444:1451  1000000 */\n      0x0f4240\n        /* \"Auth.sol/Authentication.sol\":1413:1417  user */\n      dup4\n        /* \"Auth.sol/Authentication.sol\":1413:1425  user.otpSeed */\n      0x02\n      add\n      sload\n        /* \"Auth.sol/Authentication.sol\":1427:1438  currentTime */\n      dup4\n        /* \"Auth.sol/Authentication.sol\":1396:1439  abi.encodePacked(user.otpSeed, currentTime) */\n      add(0x20, mload(0x40))\n      tag_54\n      swap3\n      swap2\n      swap1\n      tag_55\n      jump\t// in\n    tag_54:\n      mload(0x40)\n      0x20\n      dup2\n      dup4\n      sub\n      sub\n      dup2\n      mstore\n      swap1\n      0x40\n      mstore\n        /* \"Auth.sol/Authentication.sol\":1386:1440  keccak256(abi.encodePacked(user.otpSeed, currentTime)) */\n      dup1\n      mload\n      swap1\n      0x20\n      add\n      keccak256\n        /* \"Auth.sol/Authentication.sol\":1378:1441  uint256(keccak256(abi.encodePacked(user.otpSeed, currentTime))) */\n      0x00\n      shr\n        /* \"Auth.sol/Authentication.sol\":1378:1451  uint256(keccak256(abi.encodePacked(user.otpSeed, currentTime))) % 1000000 */\n      tag_56\n      swap2\n      swap1\n      tag_57\n      jump\t// in\n    tag_56:\n        /* \"Auth.sol/Authentication.sol\":1364:1451  uint256 otp = uint256(keccak256(abi.encodePacked(user.otpSeed, currentTime))) % 1000000 */\n      swap1\n      pop\n        /* \"Auth.sol/Authentication.sol\":1501:1512  currentTime */\n      dup2\n        /* \"Auth.sol/Authentication.sol\":1477:1481  user */\n      dup4\n        /* \"Auth.sol/Authentication.sol\":1477:1498  user.lastOtpTimestamp */\n      0x03\n      add\n        /* \"Auth.sol/Authentication.sol\":1477:1512  user.lastOtpTimestamp = currentTime */\n      dup2\n      swap1\n      sstore\n      pop\n        /* \"Auth.sol/Authentication.sol\":1554:1557  otp */\n      dup1\n        /* \"Auth.sol/Authentication.sol\":1523:1539  lastOtpGenerated */\n      0x01\n        /* \"Auth.sol/Authentication.sol\":1523:1551  lastOtpGenerated[msg.sender] */\n      0x00\n        /* \"Auth.sol/Authentication.sol\":1540:1550  msg.sender */\n      caller\n        /* \"Auth.sol/Authentication.sol\":1523:1551  lastOtpGenerated[msg.sender] */\n      0xffffffffffffffffffffffffffffffffffffffff\n      and\n      0xffffffffffffffffffffffffffffffffffffffff\n      and\n      dup2\n      mstore\n      0x20\n      add\n      swap1\n      dup2\n      mstore\n      0x20\n      add\n      0x00\n      keccak256\n        /* \"Auth.sol/Authentication.sol\":1523:1557  lastOtpGenerated[msg.sender] = otp */\n      dup2\n      swap1\n      sstore\n      pop\n        /* \"Auth.sol/Authentication.sol\":1588:1598  msg.sender */\n      caller\n        /* \"Auth.sol/Authentication.sol\":1575:1604  OtpGenerated(msg.sender, otp) */\n      0xffffffffffffffffffffffffffffffffffffffff\n      and\n      0x7ea1f4aa00f3fe2cef237cef49e67b086d030c247442a5cb20be7c6a807a6c93\n        /* \"Auth.sol/Authentication.sol\":1600:1603  otp */\n      dup3\n        /* \"Auth.sol/Authentication.sol\":1575:1604  OtpGenerated(msg.sender, otp) */\n      mload(0x40)\n      tag_58\n      swap2\n      swap1\n      tag_17\n      jump\t// in\n    tag_58:\n      mload(0x40)\n      dup1\n      swap2\n      sub\n      swap1\n      log2\n        /* \"Auth.sol/Authentication.sol\":1622:1625  otp */\n      dup1\n        /* \"Auth.sol/Authentication.sol\":1615:1625  return otp */\n      swap4\n      pop\n      pop\n      pop\n      pop\n        /* \"Auth.sol/Authentication.sol\":1078:1633  function generateOtp() public onlyRegistered returns (uint256) {... */\n      swap1\n      jump\t// out\n        /* \"Auth.sol/Authentication.sol\":369:420  mapping(address => uint256) public lastOtpGenerated */\n    tag_21:\n      mstore(0x20, 0x01)\n      dup1\n      0x00\n      mstore\n      keccak256(0x00, 0x40)\n      0x00\n      swap2\n      pop\n      swap1\n      pop\n      sload\n      dup2\n      jump\t// out\n        /* \"Auth.sol/Authentication.sol\":325:362  mapping(address => User) public users */\n    tag_25:\n      mstore(0x20, 0x00)\n      dup1\n      0x00\n      mstore\n      keccak256(0x00, 0x40)\n      0x00\n      swap2\n      pop\n      swap1\n      pop\n      dup1\n      0x00\n      add\n      dup1\n      sload\n      tag_59\n      swap1\n      tag_34\n      jump\t// in\n    tag_59:\n      dup1\n      0x1f\n      add\n      0x20\n      dup1\n      swap2\n      div\n      mul\n      0x20\n      add\n      mload(0x40)\n      swap1\n      dup2\n      add\n      0x40\n      mstore\n      dup1\n      swap3\n      swap2\n      swap1\n      dup2\n      dup2\n      mstore\n      0x20\n      add\n      dup3\n      dup1\n      sload\n      tag_60\n      swap1\n      tag_34\n      jump\t// in\n    tag_60:\n      dup1\n      iszero\n      tag_61\n      jumpi\n      dup1\n      0x1f\n      lt\n      tag_62\n      jumpi\n      0x0100\n      dup1\n      dup4\n      sload\n      div\n      mul\n      dup4\n      mstore\n      swap2\n      0x20\n      add\n      swap2\n      jump(tag_61)\n    tag_62:\n      dup3\n      add\n      swap2\n      swap1\n      0x00\n      mstore\n      keccak256(0x00, 0x20)\n      swap1\n    tag_63:\n      dup2\n      sload\n      dup2\n      mstore\n      swap1\n      0x01\n      add\n      swap1\n      0x20\n      add\n      dup1\n      dup4\n      gt\n      tag_63\n      jumpi\n      dup3\n      swap1\n      sub\n      0x1f\n      and\n      dup3\n      add\n      swap2\n    tag_61:\n      pop\n      pop\n      pop\n      pop\n      pop\n      swap1\n      dup1\n      0x01\n      add\n      0x00\n      swap1\n      sload\n      swap1\n      0x0100\n      exp\n      swap1\n      div\n      0xffffffffffffffffffffffffffffffffffffffff\n      and\n      swap1\n      dup1\n      0x02\n      add\n      sload\n      swap1\n      dup1\n      0x03\n      add\n      sload\n      swap1\n      pop\n      dup5\n      jump\t// out\n        /* \"Auth.sol/Authentication.sol\":764:1070  function register(string memory _username, uint256 _otpSeed) public {... */\n    tag_31:\n        /* \"Auth.sol/Authentication.sol\":895:896  0 */\n      0x00\n        /* \"Auth.sol/Authentication.sol\":857:862  users */\n      dup1\n        /* \"Auth.sol/Authentication.sol\":857:874  users[msg.sender] */\n      0x00\n        /* \"Auth.sol/Authentication.sol\":863:873  msg.sender */\n      caller\n        /* \"Auth.sol/Authentication.sol\":857:874  users[msg.sender] */\n      0xffffffffffffffffffffffffffffffffffffffff\n      and\n      0xffffffffffffffffffffffffffffffffffffffff\n      and\n      dup2\n      mstore\n      0x20\n      add\n      swap1\n      dup2\n      mstore\n      0x20\n      add\n      0x00\n      keccak256\n        /* \"Auth.sol/Authentication.sol\":857:883  users[msg.sender].username */\n      0x00\n      add\n        /* \"Auth.sol/Authentication.sol\":851:891  bytes(users[msg.sender].username).length */\n      dup1\n      sload\n      tag_65\n      swap1\n      tag_34\n      jump\t// in\n    tag_65:\n      swap1\n      pop\n        /* \"Auth.sol/Authentication.sol\":851:896  bytes(users[msg.sender].username).length == 0 */\n      eq\n        /* \"Auth.sol/Authentication.sol\":843:924  require(bytes(users[msg.sender].username).length == 0, \"User already registered\") */\n      tag_66\n      jumpi\n      mload(0x40)\n      0x08c379a000000000000000000000000000000000000000000000000000000000\n      dup2\n      mstore\n      0x04\n      add\n      tag_67\n      swap1\n      tag_68\n      jump\t// in\n    tag_67:\n      mload(0x40)\n      dup1\n      swap2\n      sub\n      swap1\n      revert\n    tag_66:\n        /* \"Auth.sol/Authentication.sol\":955:1009  User(_username, msg.sender, _otpSeed, block.timestamp) */\n      mload(0x40)\n      dup1\n      0x80\n      add\n      0x40\n      mstore\n      dup1\n        /* \"Auth.sol/Authentication.sol\":960:969  _username */\n      dup4\n        /* \"Auth.sol/Authentication.sol\":955:1009  User(_username, msg.sender, _otpSeed, block.timestamp) */\n      dup2\n      mstore\n      0x20\n      add\n        /* \"Auth.sol/Authentication.sol\":971:981  msg.sender */\n      caller\n        /* \"Auth.sol/Authentication.sol\":955:1009  User(_username, msg.sender, _otpSeed, block.timestamp) */\n      0xffffffffffffffffffffffffffffffffffffffff\n      and\n      dup2\n      mstore\n      0x20\n      add\n        /* \"Auth.sol/Authentication.sol\":983:991  _otpSeed */\n      dup3\n        /* \"Auth.sol/Authentication.sol\":955:1009  User(_username, msg.sender, _otpSeed, block.timestamp) */\n      dup2\n      mstore\n      0x20\n      add\n        /* \"Auth.sol/Authentication.sol\":993:1008  block.timestamp */\n      timestamp\n        /* \"Auth.sol/Authentication.sol\":955:1009  User(_username, msg.sender, _otpSeed, block.timestamp) */\n      dup2\n      mstore\n      pop\n        /* \"Auth.sol/Authentication.sol\":935:940  users */\n      0x00\n        /* \"Auth.sol/Authentication.sol\":935:952  users[msg.sender] */\n      dup1\n        /* \"Auth.sol/Authentication.sol\":941:951  msg.sender */\n      caller\n        /* \"Auth.sol/Authentication.sol\":935:952  users[msg.sender] */\n      0xffffffffffffffffffffffffffffffffffffffff\n      and\n      0xffffffffffffffffffffffffffffffffffffffff\n      and\n      dup2\n      mstore\n      0x20\n      add\n      swap1\n      dup2\n      mstore\n      0x20\n      add\n      0x00\n      keccak256\n        /* \"Auth.sol/Authentication.sol\":935:1009  users[msg.sender] = User(_username, msg.sender, _otpSeed, block.timestamp) */\n      0x00\n      dup3\n      add\n      mload\n      dup2\n      0x00\n      add\n      swap1\n      dup2\n      tag_69\n      swap2\n      swap1\n      tag_70\n      jump\t// in\n    tag_69:\n      pop\n      0x20\n      dup3\n      add\n      mload\n      dup2\n      0x01\n      add\n      exp(0x0100, 0x00)\n      dup2\n      sload\n      dup2\n      0xffffffffffffffffffffffffffffffffffffffff\n      mul\n      not\n      and\n      swap1\n      dup4\n      0xffffffffffffffffffffffffffffffffffffffff\n      and\n      mul\n      or\n      swap1\n      sstore\n      pop\n      0x40\n      dup3\n      add\n      mload\n      dup2\n      0x02\n      add\n      sstore\n      0x60\n      dup3\n      add\n      mload\n      dup2\n      0x03\n      add\n      sstore\n      swap1\n      pop\n      pop\n        /* \"Auth.sol/Authentication.sol\":1040:1050  msg.sender */\n      caller\n        /* \"Auth.sol/Authentication.sol\":1025:1062  UserRegistered(msg.sender, _username) */\n      0xffffffffffffffffffffffffffffffffffffffff\n      and\n      0x48cac28ad4dc618e15f4c2dd5e97751182f166de97b25618318b2112aa951a2f\n        /* \"Auth.sol/Authentication.sol\":1052:1061  _username */\n      dup4\n        /* \"Auth.sol/Authentication.sol\":1025:1062  UserRegistered(msg.sender, _username) */\n      mload(0x40)\n      tag_71\n      swap2\n      swap1\n      tag_72\n      jump\t// in\n    tag_71:\n      mload(0x40)\n      dup1\n      swap2\n      sub\n      swap1\n      log2\n        /* \"Auth.sol/Authentication.sol\":764:1070  function register(string memory _username, uint256 _otpSeed) public {... */\n      pop\n      pop\n      jump\t// out\n        /* \"#utility.yul\":7:82   */\n    tag_73:\n        /* \"#utility.yul\":40:46   */\n      0x00\n        /* \"#utility.yul\":73:75   */\n      0x40\n        /* \"#utility.yul\":67:76   */\n      mload\n        /* \"#utility.yul\":57:76   */\n      swap1\n      pop\n        /* \"#utility.yul\":7:82   */\n      swap1\n      jump\t// out\n        /* \"#utility.yul\":88:205   */\n    tag_74:\n        /* \"#utility.yul\":197:198   */\n      0x00\n        /* \"#utility.yul\":194:195   */\n      dup1\n        /* \"#utility.yul\":187:199   */\n      revert\n        /* \"#utility.yul\":211:328   */\n    tag_75:\n        /* \"#utility.yul\":320:321   */\n      0x00\n        /* \"#utility.yul\":317:318   */\n      dup1\n        /* \"#utility.yul\":310:322   */\n      revert\n        /* \"#utility.yul\":334:411   */\n    tag_76:\n        /* \"#utility.yul\":371:378   */\n      0x00\n        /* \"#utility.yul\":400:405   */\n      dup2\n        /* \"#utility.yul\":389:405   */\n      swap1\n      pop\n        /* \"#utility.yul\":334:411   */\n      swap2\n      swap1\n      pop\n      jump\t// out\n        /* \"#utility.yul\":417:539   */\n    tag_77:\n        /* \"#utility.yul\":490:514   */\n      tag_135\n        /* \"#utility.yul\":508:513   */\n      dup2\n        /* \"#utility.yul\":490:514   */\n      tag_76\n      jump\t// in\n    tag_135:\n        /* \"#utility.yul\":483:488   */\n      dup2\n        /* \"#utility.yul\":480:515   */\n      eq\n        /* \"#utility.yul\":470:533   */\n      tag_136\n      jumpi\n        /* \"#utility.yul\":529:530   */\n      0x00\n        /* \"#utility.yul\":526:527   */\n      dup1\n        /* \"#utility.yul\":519:531   */\n      revert\n        /* \"#utility.yul\":470:533   */\n    tag_136:\n        /* \"#utility.yul\":417:539   */\n      pop\n      jump\t// out\n        /* \"#utility.yul\":545:684   */\n    tag_78:\n        /* \"#utility.yul\":591:596   */\n      0x00\n        /* \"#utility.yul\":629:635   */\n      dup2\n        /* \"#utility.yul\":616:636   */\n      calldataload\n        /* \"#utility.yul\":607:636   */\n      swap1\n      pop\n        /* \"#utility.yul\":645:678   */\n      tag_138\n        /* \"#utility.yul\":672:677   */\n      dup2\n        /* \"#utility.yul\":645:678   */\n      tag_77\n      jump\t// in\n    tag_138:\n        /* \"#utility.yul\":545:684   */\n      swap3\n      swap2\n      pop\n      pop\n      jump\t// out\n        /* \"#utility.yul\":690:1019   */\n    tag_10:\n        /* \"#utility.yul\":749:755   */\n      0x00\n        /* \"#utility.yul\":798:800   */\n      0x20\n        /* \"#utility.yul\":786:795   */\n      dup3\n        /* \"#utility.yul\":777:784   */\n      dup5\n        /* \"#utility.yul\":773:796   */\n      sub\n        /* \"#utility.yul\":769:801   */\n      slt\n        /* \"#utility.yul\":766:885   */\n      iszero\n      tag_140\n      jumpi\n        /* \"#utility.yul\":804:883   */\n      tag_141\n      tag_74\n      jump\t// in\n    tag_141:\n        /* \"#utility.yul\":766:885   */\n    tag_140:\n        /* \"#utility.yul\":924:925   */\n      0x00\n        /* \"#utility.yul\":949:1002   */\n      tag_142\n        /* \"#utility.yul\":994:1001   */\n      dup5\n        /* \"#utility.yul\":985:991   */\n      dup3\n        /* \"#utility.yul\":974:983   */\n      dup6\n        /* \"#utility.yul\":970:992   */\n      add\n        /* \"#utility.yul\":949:1002   */\n      tag_78\n      jump\t// in\n    tag_142:\n        /* \"#utility.yul\":939:1002   */\n      swap2\n      pop\n        /* \"#utility.yul\":895:1012   */\n      pop\n        /* \"#utility.yul\":690:1019   */\n      swap3\n      swap2\n      pop\n      pop\n      jump\t// out\n        /* \"#utility.yul\":1025:1115   */\n    tag_79:\n        /* \"#utility.yul\":1059:1066   */\n      0x00\n        /* \"#utility.yul\":1102:1107   */\n      dup2\n        /* \"#utility.yul\":1095:1108   */\n      iszero\n        /* \"#utility.yul\":1088:1109   */\n      iszero\n        /* \"#utility.yul\":1077:1109   */\n      swap1\n      pop\n        /* \"#utility.yul\":1025:1115   */\n      swap2\n      swap1\n      pop\n      jump\t// out\n        /* \"#utility.yul\":1121:1230   */\n    tag_80:\n        /* \"#utility.yul\":1202:1223   */\n      tag_145\n        /* \"#utility.yul\":1217:1222   */\n      dup2\n        /* \"#utility.yul\":1202:1223   */\n      tag_79\n      jump\t// in\n    tag_145:\n        /* \"#utility.yul\":1197:1200   */\n      dup3\n        /* \"#utility.yul\":1190:1224   */\n      mstore\n        /* \"#utility.yul\":1121:1230   */\n      pop\n      pop\n      jump\t// out\n        /* \"#utility.yul\":1236:1446   */\n    tag_13:\n        /* \"#utility.yul\":1323:1327   */\n      0x00\n        /* \"#utility.yul\":1361:1363   */\n      0x20\n        /* \"#utility.yul\":1350:1359   */\n      dup3\n        /* \"#utility.yul\":1346:1364   */\n      add\n        /* \"#utility.yul\":1338:1364   */\n      swap1\n      pop\n        /* \"#utility.yul\":1374:1439   */\n      tag_147\n        /* \"#utility.yul\":1436:1437   */\n      0x00\n        /* \"#utility.yul\":1425:1434   */\n      dup4\n        /* \"#utility.yul\":1421:1438   */\n      add\n        /* \"#utility.yul\":1412:1418   */\n      dup5\n        /* \"#utility.yul\":1374:1439   */\n      tag_80\n      jump\t// in\n    tag_147:\n        /* \"#utility.yul\":1236:1446   */\n      swap3\n      swap2\n      pop\n      pop\n      jump\t// out\n        /* \"#utility.yul\":1452:1570   */\n    tag_81:\n        /* \"#utility.yul\":1539:1563   */\n      tag_149\n        /* \"#utility.yul\":1557:1562   */\n      dup2\n        /* \"#utility.yul\":1539:1563   */\n      tag_76\n      jump\t// in\n    tag_149:\n        /* \"#utility.yul\":1534:1537   */\n      dup3\n        /* \"#utility.yul\":1527:1564   */\n      mstore\n        /* \"#utility.yul\":1452:1570   */\n      pop\n      pop\n      jump\t// out\n        /* \"#utility.yul\":1576:1798   */\n    tag_17:\n        /* \"#utility.yul\":1669:1673   */\n      0x00\n        /* \"#utility.yul\":1707:1709   */\n      0x20\n        /* \"#utility.yul\":1696:1705   */\n      dup3\n        /* \"#utility.yul\":1692:1710   */\n      add\n        /* \"#utility.yul\":1684:1710   */\n      swap1\n      pop\n        /* \"#utility.yul\":1720:1791   */\n      tag_151\n        /* \"#utility.yul\":1788:1789   */\n      0x00\n        /* \"#utility.yul\":1777:1786   */\n      dup4\n        /* \"#utility.yul\":1773:1790   */\n      add\n        /* \"#utility.yul\":1764:1770   */\n      dup5\n        /* \"#utility.yul\":1720:1791   */\n      tag_81\n      jump\t// in\n    tag_151:\n        /* \"#utility.yul\":1576:1798   */\n      swap3\n      swap2\n      pop\n      pop\n      jump\t// out\n        /* \"#utility.yul\":1804:1930   */\n    tag_82:\n        /* \"#utility.yul\":1841:1848   */\n      0x00\n        /* \"#utility.yul\":1881:1923   */\n      0xffffffffffffffffffffffffffffffffffffffff\n        /* \"#utility.yul\":1874:1879   */\n      dup3\n        /* \"#utility.yul\":1870:1924   */\n      and\n        /* \"#utility.yul\":1859:1924   */\n      swap1\n      pop\n        /* \"#utility.yul\":1804:1930   */\n      swap2\n      swap1\n      pop\n      jump\t// out\n        /* \"#utility.yul\":1936:2032   */\n    tag_83:\n        /* \"#utility.yul\":1973:1980   */\n      0x00\n        /* \"#utility.yul\":2002:2026   */\n      tag_154\n        /* \"#utility.yul\":2020:2025   */\n      dup3\n        /* \"#utility.yul\":2002:2026   */\n      tag_82\n      jump\t// in\n    tag_154:\n        /* \"#utility.yul\":1991:2026   */\n      swap1\n      pop\n        /* \"#utility.yul\":1936:2032   */\n      swap2\n      swap1\n      pop\n      jump\t// out\n        /* \"#utility.yul\":2038:2160   */\n    tag_84:\n        /* \"#utility.yul\":2111:2135   */\n      tag_156\n        /* \"#utility.yul\":2129:2134   */\n      dup2\n        /* \"#utility.yul\":2111:2135   */\n      tag_83\n      jump\t// in\n    tag_156:\n        /* \"#utility.yul\":2104:2109   */\n      dup2\n        /* \"#utility.yul\":2101:2136   */\n      eq\n        /* \"#utility.yul\":2091:2154   */\n      tag_157\n      jumpi\n        /* \"#utility.yul\":2150:2151   */\n      0x00\n        /* \"#utility.yul\":2147:2148   */\n      dup1\n        /* \"#utility.yul\":2140:2152   */\n      revert\n        /* \"#utility.yul\":2091:2154   */\n    tag_157:\n        /* \"#utility.yul\":2038:2160   */\n      pop\n      jump\t// out\n        /* \"#utility.yul\":2166:2305   */\n    tag_85:\n        /* \"#utility.yul\":2212:2217   */\n      0x00\n        /* \"#utility.yul\":2250:2256   */\n      dup2\n        /* \"#utility.yul\":2237:2257   */\n      calldataload\n        /* \"#utility.yul\":2228:2257   */\n      swap1\n      pop\n        /* \"#utility.yul\":2266:2299   */\n      tag_159\n        /* \"#utility.yul\":2293:2298   */\n      dup2\n        /* \"#utility.yul\":2266:2299   */\n      tag_84\n      jump\t// in\n    tag_159:\n        /* \"#utility.yul\":2166:2305   */\n      swap3\n      swap2\n      pop\n      pop\n      jump\t// out\n        /* \"#utility.yul\":2311:2640   */\n    tag_20:\n        /* \"#utility.yul\":2370:2376   */\n      0x00\n        /* \"#utility.yul\":2419:2421   */\n      0x20\n        /* \"#utility.yul\":2407:2416   */\n      dup3\n        /* \"#utility.yul\":2398:2405   */\n      dup5\n        /* \"#utility.yul\":2394:2417   */\n      sub\n        /* \"#utility.yul\":2390:2422   */\n      slt\n        /* \"#utility.yul\":2387:2506   */\n      iszero\n      tag_161\n      jumpi\n        /* \"#utility.yul\":2425:2504   */\n      tag_162\n      tag_74\n      jump\t// in\n    tag_162:\n        /* \"#utility.yul\":2387:2506   */\n    tag_161:\n        /* \"#utility.yul\":2545:2546   */\n      0x00\n        /* \"#utility.yul\":2570:2623   */\n      tag_163\n        /* \"#utility.yul\":2615:2622   */\n      dup5\n        /* \"#utility.yul\":2606:2612   */\n      dup3\n        /* \"#utility.yul\":2595:2604   */\n      dup6\n        /* \"#utility.yul\":2591:2613   */\n      add\n        /* \"#utility.yul\":2570:2623   */\n      tag_85\n      jump\t// in\n    tag_163:\n        /* \"#utility.yul\":2560:2623   */\n      swap2\n      pop\n        /* \"#utility.yul\":2516:2633   */\n      pop\n        /* \"#utility.yul\":2311:2640   */\n      swap3\n      swap2\n      pop\n      pop\n      jump\t// out\n        /* \"#utility.yul\":2646:2745   */\n    tag_86:\n        /* \"#utility.yul\":2698:2704   */\n      0x00\n        /* \"#utility.yul\":2732:2737   */\n      dup2\n        /* \"#utility.yul\":2726:2738   */\n      mload\n        /* \"#utility.yul\":2716:2738   */\n      swap1\n      pop\n        /* \"#utility.yul\":2646:2745   */\n      swap2\n      swap1\n      pop\n      jump\t// out\n        /* \"#utility.yul\":2751:2920   */\n    tag_87:\n        /* \"#utility.yul\":2835:2846   */\n      0x00\n        /* \"#utility.yul\":2869:2875   */\n      dup3\n        /* \"#utility.yul\":2864:2867   */\n      dup3\n        /* \"#utility.yul\":2857:2876   */\n      mstore\n        /* \"#utility.yul\":2909:2913   */\n      0x20\n        /* \"#utility.yul\":2904:2907   */\n      dup3\n        /* \"#utility.yul\":2900:2914   */\n      add\n        /* \"#utility.yul\":2885:2914   */\n      swap1\n      pop\n        /* \"#utility.yul\":2751:2920   */\n      swap3\n      swap2\n      pop\n      pop\n      jump\t// out\n        /* \"#utility.yul\":2926:3065   */\n    tag_88:\n        /* \"#utility.yul\":3015:3021   */\n      dup3\n        /* \"#utility.yul\":3010:3013   */\n      dup2\n        /* \"#utility.yul\":3005:3008   */\n      dup4\n        /* \"#utility.yul\":2999:3022   */\n      mcopy\n        /* \"#utility.yul\":3056:3057   */\n      0x00\n        /* \"#utility.yul\":3047:3053   */\n      dup4\n        /* \"#utility.yul\":3042:3045   */\n      dup4\n        /* \"#utility.yul\":3038:3054   */\n      add\n        /* \"#utility.yul\":3031:3058   */\n      mstore\n        /* \"#utility.yul\":2926:3065   */\n      pop\n      pop\n      pop\n      jump\t// out\n        /* \"#utility.yul\":3071:3173   */\n    tag_89:\n        /* \"#utility.yul\":3112:3118   */\n      0x00\n        /* \"#utility.yul\":3163:3165   */\n      0x1f\n        /* \"#utility.yul\":3159:3166   */\n      not\n        /* \"#utility.yul\":3154:3156   */\n      0x1f\n        /* \"#utility.yul\":3147:3152   */\n      dup4\n        /* \"#utility.yul\":3143:3157   */\n      add\n        /* \"#utility.yul\":3139:3167   */\n      and\n        /* \"#utility.yul\":3129:3167   */\n      swap1\n      pop\n        /* \"#utility.yul\":3071:3173   */\n      swap2\n      swap1\n      pop\n      jump\t// out\n        /* \"#utility.yul\":3179:3556   */\n    tag_90:\n        /* \"#utility.yul\":3267:3270   */\n      0x00\n        /* \"#utility.yul\":3295:3334   */\n      tag_169\n        /* \"#utility.yul\":3328:3333   */\n      dup3\n        /* \"#utility.yul\":3295:3334   */\n      tag_86\n      jump\t// in\n    tag_169:\n        /* \"#utility.yul\":3350:3421   */\n      tag_170\n        /* \"#utility.yul\":3414:3420   */\n      dup2\n        /* \"#utility.yul\":3409:3412   */\n      dup6\n        /* \"#utility.yul\":3350:3421   */\n      tag_87\n      jump\t// in\n    tag_170:\n        /* \"#utility.yul\":3343:3421   */\n      swap4\n      pop\n        /* \"#utility.yul\":3430:3495   */\n      tag_171\n        /* \"#utility.yul\":3488:3494   */\n      dup2\n        /* \"#utility.yul\":3483:3486   */\n      dup6\n        /* \"#utility.yul\":3476:3480   */\n      0x20\n        /* \"#utility.yul\":3469:3474   */\n      dup7\n        /* \"#utility.yul\":3465:3481   */\n      add\n        /* \"#utility.yul\":3430:3495   */\n      tag_88\n      jump\t// in\n    tag_171:\n        /* \"#utility.yul\":3520:3549   */\n      tag_172\n        /* \"#utility.yul\":3542:3548   */\n      dup2\n        /* \"#utility.yul\":3520:3549   */\n      tag_89\n      jump\t// in\n    tag_172:\n        /* \"#utility.yul\":3515:3518   */\n      dup5\n        /* \"#utility.yul\":3511:3550   */\n      add\n        /* \"#utility.yul\":3504:3550   */\n      swap2\n      pop\n        /* \"#utility.yul\":3271:3556   */\n      pop\n        /* \"#utility.yul\":3179:3556   */\n      swap3\n      swap2\n      pop\n      pop\n      jump\t// out\n        /* \"#utility.yul\":3562:3680   */\n    tag_91:\n        /* \"#utility.yul\":3649:3673   */\n      tag_174\n        /* \"#utility.yul\":3667:3672   */\n      dup2\n        /* \"#utility.yul\":3649:3673   */\n      tag_83\n      jump\t// in\n    tag_174:\n        /* \"#utility.yul\":3644:3647   */\n      dup3\n        /* \"#utility.yul\":3637:3674   */\n      mstore\n        /* \"#utility.yul\":3562:3680   */\n      pop\n      pop\n      jump\t// out\n        /* \"#utility.yul\":3686:4330   */\n    tag_27:\n        /* \"#utility.yul\":3883:3887   */\n      0x00\n        /* \"#utility.yul\":3921:3924   */\n      0x80\n        /* \"#utility.yul\":3910:3919   */\n      dup3\n        /* \"#utility.yul\":3906:3925   */\n      add\n        /* \"#utility.yul\":3898:3925   */\n      swap1\n      pop\n        /* \"#utility.yul\":3971:3980   */\n      dup2\n        /* \"#utility.yul\":3965:3969   */\n      dup2\n        /* \"#utility.yul\":3961:3981   */\n      sub\n        /* \"#utility.yul\":3957:3958   */\n      0x00\n        /* \"#utility.yul\":3946:3955   */\n      dup4\n        /* \"#utility.yul\":3942:3959   */\n      add\n        /* \"#utility.yul\":3935:3982   */\n      mstore\n        /* \"#utility.yul\":3999:4077   */\n      tag_176\n        /* \"#utility.yul\":4072:4076   */\n      dup2\n        /* \"#utility.yul\":4063:4069   */\n      dup8\n        /* \"#utility.yul\":3999:4077   */\n      tag_90\n      jump\t// in\n    tag_176:\n        /* \"#utility.yul\":3991:4077   */\n      swap1\n      pop\n        /* \"#utility.yul\":4087:4159   */\n      tag_177\n        /* \"#utility.yul\":4155:4157   */\n      0x20\n        /* \"#utility.yul\":4144:4153   */\n      dup4\n        /* \"#utility.yul\":4140:4158   */\n      add\n        /* \"#utility.yul\":4131:4137   */\n      dup7\n        /* \"#utility.yul\":4087:4159   */\n      tag_91\n      jump\t// in\n    tag_177:\n        /* \"#utility.yul\":4169:4241   */\n      tag_178\n        /* \"#utility.yul\":4237:4239   */\n      0x40\n        /* \"#utility.yul\":4226:4235   */\n      dup4\n        /* \"#utility.yul\":4222:4240   */\n      add\n        /* \"#utility.yul\":4213:4219   */\n      dup6\n        /* \"#utility.yul\":4169:4241   */\n      tag_81\n      jump\t// in\n    tag_178:\n        /* \"#utility.yul\":4251:4323   */\n      tag_179\n        /* \"#utility.yul\":4319:4321   */\n      0x60\n        /* \"#utility.yul\":4308:4317   */\n      dup4\n        /* \"#utility.yul\":4304:4322   */\n      add\n        /* \"#utility.yul\":4295:4301   */\n      dup5\n        /* \"#utility.yul\":4251:4323   */\n      tag_81\n      jump\t// in\n    tag_179:\n        /* \"#utility.yul\":3686:4330   */\n      swap6\n      swap5\n      pop\n      pop\n      pop\n      pop\n      pop\n      jump\t// out\n        /* \"#utility.yul\":4336:4453   */\n    tag_92:\n        /* \"#utility.yul\":4445:4446   */\n      0x00\n        /* \"#utility.yul\":4442:4443   */\n      dup1\n        /* \"#utility.yul\":4435:4447   */\n      revert\n        /* \"#utility.yul\":4459:4576   */\n    tag_93:\n        /* \"#utility.yul\":4568:4569   */\n      0x00\n        /* \"#utility.yul\":4565:4566   */\n      dup1\n        /* \"#utility.yul\":4558:4570   */\n      revert\n        /* \"#utility.yul\":4582:4762   */\n    tag_94:\n        /* \"#utility.yul\":4630:4707   */\n      0x4e487b7100000000000000000000000000000000000000000000000000000000\n        /* \"#utility.yul\":4627:4628   */\n      0x00\n        /* \"#utility.yul\":4620:4708   */\n      mstore\n        /* \"#utility.yul\":4727:4731   */\n      0x41\n        /* \"#utility.yul\":4724:4725   */\n      0x04\n        /* \"#utility.yul\":4717:4732   */\n      mstore\n        /* \"#utility.yul\":4751:4755   */\n      0x24\n        /* \"#utility.yul\":4748:4749   */\n      0x00\n        /* \"#utility.yul\":4741:4756   */\n      revert\n        /* \"#utility.yul\":4768:5049   */\n    tag_95:\n        /* \"#utility.yul\":4851:4878   */\n      tag_184\n        /* \"#utility.yul\":4873:4877   */\n      dup3\n        /* \"#utility.yul\":4851:4878   */\n      tag_89\n      jump\t// in\n    tag_184:\n        /* \"#utility.yul\":4843:4849   */\n      dup2\n        /* \"#utility.yul\":4839:4879   */\n      add\n        /* \"#utility.yul\":4981:4987   */\n      dup2\n        /* \"#utility.yul\":4969:4979   */\n      dup2\n        /* \"#utility.yul\":4966:4988   */\n      lt\n        /* \"#utility.yul\":4945:4963   */\n      0xffffffffffffffff\n        /* \"#utility.yul\":4933:4943   */\n      dup3\n        /* \"#utility.yul\":4930:4964   */\n      gt\n        /* \"#utility.yul\":4927:4989   */\n      or\n        /* \"#utility.yul\":4924:5012   */\n      iszero\n      tag_185\n      jumpi\n        /* \"#utility.yul\":4992:5010   */\n      tag_186\n      tag_94\n      jump\t// in\n    tag_186:\n        /* \"#utility.yul\":4924:5012   */\n    tag_185:\n        /* \"#utility.yul\":5032:5042   */\n      dup1\n        /* \"#utility.yul\":5028:5030   */\n      0x40\n        /* \"#utility.yul\":5021:5043   */\n      mstore\n        /* \"#utility.yul\":4811:5049   */\n      pop\n        /* \"#utility.yul\":4768:5049   */\n      pop\n      pop\n      jump\t// out\n        /* \"#utility.yul\":5055:5184   */\n    tag_96:\n        /* \"#utility.yul\":5089:5095   */\n      0x00\n        /* \"#utility.yul\":5116:5136   */\n      tag_188\n      tag_73\n      jump\t// in\n    tag_188:\n        /* \"#utility.yul\":5106:5136   */\n      swap1\n      pop\n        /* \"#utility.yul\":5145:5178   */\n      tag_189\n        /* \"#utility.yul\":5173:5177   */\n      dup3\n        /* \"#utility.yul\":5165:5171   */\n      dup3\n        /* \"#utility.yul\":5145:5178   */\n      tag_95\n      jump\t// in\n    tag_189:\n        /* \"#utility.yul\":5055:5184   */\n      swap2\n      swap1\n      pop\n      jump\t// out\n        /* \"#utility.yul\":5190:5498   */\n    tag_97:\n        /* \"#utility.yul\":5252:5256   */\n      0x00\n        /* \"#utility.yul\":5342:5360   */\n      0xffffffffffffffff\n        /* \"#utility.yul\":5334:5340   */\n      dup3\n        /* \"#utility.yul\":5331:5361   */\n      gt\n        /* \"#utility.yul\":5328:5384   */\n      iszero\n      tag_191\n      jumpi\n        /* \"#utility.yul\":5364:5382   */\n      tag_192\n      tag_94\n      jump\t// in\n    tag_192:\n        /* \"#utility.yul\":5328:5384   */\n    tag_191:\n        /* \"#utility.yul\":5402:5431   */\n      tag_193\n        /* \"#utility.yul\":5424:5430   */\n      dup3\n        /* \"#utility.yul\":5402:5431   */\n      tag_89\n      jump\t// in\n    tag_193:\n        /* \"#utility.yul\":5394:5431   */\n      swap1\n      pop\n        /* \"#utility.yul\":5486:5490   */\n      0x20\n        /* \"#utility.yul\":5480:5484   */\n      dup2\n        /* \"#utility.yul\":5476:5491   */\n      add\n        /* \"#utility.yul\":5468:5491   */\n      swap1\n      pop\n        /* \"#utility.yul\":5190:5498   */\n      swap2\n      swap1\n      pop\n      jump\t// out\n        /* \"#utility.yul\":5504:5652   */\n    tag_98:\n        /* \"#utility.yul\":5602:5608   */\n      dup3\n        /* \"#utility.yul\":5597:5600   */\n      dup2\n        /* \"#utility.yul\":5592:5595   */\n      dup4\n        /* \"#utility.yul\":5579:5609   */\n      calldatacopy\n        /* \"#utility.yul\":5643:5644   */\n      0x00\n        /* \"#utility.yul\":5634:5640   */\n      dup4\n        /* \"#utility.yul\":5629:5632   */\n      dup4\n        /* \"#utility.yul\":5625:5641   */\n      add\n        /* \"#utility.yul\":5618:5645   */\n      mstore\n        /* \"#utility.yul\":5504:5652   */\n      pop\n      pop\n      pop\n      jump\t// out\n        /* \"#utility.yul\":5658:6083   */\n    tag_99:\n        /* \"#utility.yul\":5736:5741   */\n      0x00\n        /* \"#utility.yul\":5761:5827   */\n      tag_196\n        /* \"#utility.yul\":5777:5826   */\n      tag_197\n        /* \"#utility.yul\":5819:5825   */\n      dup5\n        /* \"#utility.yul\":5777:5826   */\n      tag_97\n      jump\t// in\n    tag_197:\n        /* \"#utility.yul\":5761:5827   */\n      tag_96\n      jump\t// in\n    tag_196:\n        /* \"#utility.yul\":5752:5827   */\n      swap1\n      pop\n        /* \"#utility.yul\":5850:5856   */\n      dup3\n        /* \"#utility.yul\":5843:5848   */\n      dup2\n        /* \"#utility.yul\":5836:5857   */\n      mstore\n        /* \"#utility.yul\":5888:5892   */\n      0x20\n        /* \"#utility.yul\":5881:5886   */\n      dup2\n        /* \"#utility.yul\":5877:5893   */\n      add\n        /* \"#utility.yul\":5926:5929   */\n      dup5\n        /* \"#utility.yul\":5917:5923   */\n      dup5\n        /* \"#utility.yul\":5912:5915   */\n      dup5\n        /* \"#utility.yul\":5908:5924   */\n      add\n        /* \"#utility.yul\":5905:5930   */\n      gt\n        /* \"#utility.yul\":5902:6014   */\n      iszero\n      tag_198\n      jumpi\n        /* \"#utility.yul\":5933:6012   */\n      tag_199\n      tag_93\n      jump\t// in\n    tag_199:\n        /* \"#utility.yul\":5902:6014   */\n    tag_198:\n        /* \"#utility.yul\":6023:6077   */\n      tag_200\n        /* \"#utility.yul\":6070:6076   */\n      dup5\n        /* \"#utility.yul\":6065:6068   */\n      dup3\n        /* \"#utility.yul\":6060:6063   */\n      dup6\n        /* \"#utility.yul\":6023:6077   */\n      tag_98\n      jump\t// in\n    tag_200:\n        /* \"#utility.yul\":5742:6083   */\n      pop\n        /* \"#utility.yul\":5658:6083   */\n      swap4\n      swap3\n      pop\n      pop\n      pop\n      jump\t// out\n        /* \"#utility.yul\":6103:6443   */\n    tag_100:\n        /* \"#utility.yul\":6159:6164   */\n      0x00\n        /* \"#utility.yul\":6208:6211   */\n      dup3\n        /* \"#utility.yul\":6201:6205   */\n      0x1f\n        /* \"#utility.yul\":6193:6199   */\n      dup4\n        /* \"#utility.yul\":6189:6206   */\n      add\n        /* \"#utility.yul\":6185:6212   */\n      slt\n        /* \"#utility.yul\":6175:6297   */\n      tag_202\n      jumpi\n        /* \"#utility.yul\":6216:6295   */\n      tag_203\n      tag_92\n      jump\t// in\n    tag_203:\n        /* \"#utility.yul\":6175:6297   */\n    tag_202:\n        /* \"#utility.yul\":6333:6339   */\n      dup2\n        /* \"#utility.yul\":6320:6340   */\n      calldataload\n        /* \"#utility.yul\":6358:6437   */\n      tag_204\n        /* \"#utility.yul\":6433:6436   */\n      dup5\n        /* \"#utility.yul\":6425:6431   */\n      dup3\n        /* \"#utility.yul\":6418:6422   */\n      0x20\n        /* \"#utility.yul\":6410:6416   */\n      dup7\n        /* \"#utility.yul\":6406:6423   */\n      add\n        /* \"#utility.yul\":6358:6437   */\n      tag_99\n      jump\t// in\n    tag_204:\n        /* \"#utility.yul\":6349:6437   */\n      swap2\n      pop\n        /* \"#utility.yul\":6165:6443   */\n      pop\n        /* \"#utility.yul\":6103:6443   */\n      swap3\n      swap2\n      pop\n      pop\n      jump\t// out\n        /* \"#utility.yul\":6449:7103   */\n    tag_30:\n        /* \"#utility.yul\":6527:6533   */\n      0x00\n        /* \"#utility.yul\":6535:6541   */\n      dup1\n        /* \"#utility.yul\":6584:6586   */\n      0x40\n        /* \"#utility.yul\":6572:6581   */\n      dup4\n        /* \"#utility.yul\":6563:6570   */\n      dup6\n        /* \"#utility.yul\":6559:6582   */\n      sub\n        /* \"#utility.yul\":6555:6587   */\n      slt\n        /* \"#utility.yul\":6552:6671   */\n      iszero\n      tag_206\n      jumpi\n        /* \"#utility.yul\":6590:6669   */\n      tag_207\n      tag_74\n      jump\t// in\n    tag_207:\n        /* \"#utility.yul\":6552:6671   */\n    tag_206:\n        /* \"#utility.yul\":6738:6739   */\n      0x00\n        /* \"#utility.yul\":6727:6736   */\n      dup4\n        /* \"#utility.yul\":6723:6740   */\n      add\n        /* \"#utility.yul\":6710:6741   */\n      calldataload\n        /* \"#utility.yul\":6768:6786   */\n      0xffffffffffffffff\n        /* \"#utility.yul\":6760:6766   */\n      dup2\n        /* \"#utility.yul\":6757:6787   */\n      gt\n        /* \"#utility.yul\":6754:6871   */\n      iszero\n      tag_208\n      jumpi\n        /* \"#utility.yul\":6790:6869   */\n      tag_209\n      tag_75\n      jump\t// in\n    tag_209:\n        /* \"#utility.yul\":6754:6871   */\n    tag_208:\n        /* \"#utility.yul\":6895:6958   */\n      tag_210\n        /* \"#utility.yul\":6950:6957   */\n      dup6\n        /* \"#utility.yul\":6941:6947   */\n      dup3\n        /* \"#utility.yul\":6930:6939   */\n      dup7\n        /* \"#utility.yul\":6926:6948   */\n      add\n        /* \"#utility.yul\":6895:6958   */\n      tag_100\n      jump\t// in\n    tag_210:\n        /* \"#utility.yul\":6885:6958   */\n      swap3\n      pop\n        /* \"#utility.yul\":6681:6968   */\n      pop\n        /* \"#utility.yul\":7007:7009   */\n      0x20\n        /* \"#utility.yul\":7033:7086   */\n      tag_211\n        /* \"#utility.yul\":7078:7085   */\n      dup6\n        /* \"#utility.yul\":7069:7075   */\n      dup3\n        /* \"#utility.yul\":7058:7067   */\n      dup7\n        /* \"#utility.yul\":7054:7076   */\n      add\n        /* \"#utility.yul\":7033:7086   */\n      tag_78\n      jump\t// in\n    tag_211:\n        /* \"#utility.yul\":7023:7086   */\n      swap2\n      pop\n        /* \"#utility.yul\":6978:7096   */\n      pop\n        /* \"#utility.yul\":6449:7103   */\n      swap3\n      pop\n      swap3\n      swap1\n      pop\n      jump\t// out\n        /* \"#utility.yul\":7109:7289   */\n    tag_101:\n        /* \"#utility.yul\":7157:7234   */\n      0x4e487b7100000000000000000000000000000000000000000000000000000000\n        /* \"#utility.yul\":7154:7155   */\n      0x00\n        /* \"#utility.yul\":7147:7235   */\n      mstore\n        /* \"#utility.yul\":7254:7258   */\n      0x22\n        /* \"#utility.yul\":7251:7252   */\n      0x04\n        /* \"#utility.yul\":7244:7259   */\n      mstore\n        /* \"#utility.yul\":7278:7282   */\n      0x24\n        /* \"#utility.yul\":7275:7276   */\n      0x00\n        /* \"#utility.yul\":7268:7283   */\n      revert\n        /* \"#utility.yul\":7295:7615   */\n    tag_34:\n        /* \"#utility.yul\":7339:7345   */\n      0x00\n        /* \"#utility.yul\":7376:7377   */\n      0x02\n        /* \"#utility.yul\":7370:7374   */\n      dup3\n        /* \"#utility.yul\":7366:7378   */\n      div\n        /* \"#utility.yul\":7356:7378   */\n      swap1\n      pop\n        /* \"#utility.yul\":7423:7424   */\n      0x01\n        /* \"#utility.yul\":7417:7421   */\n      dup3\n        /* \"#utility.yul\":7413:7425   */\n      and\n        /* \"#utility.yul\":7444:7462   */\n      dup1\n        /* \"#utility.yul\":7434:7515   */\n      tag_214\n      jumpi\n        /* \"#utility.yul\":7500:7504   */\n      0x7f\n        /* \"#utility.yul\":7492:7498   */\n      dup3\n        /* \"#utility.yul\":7488:7505   */\n      and\n        /* \"#utility.yul\":7478:7505   */\n      swap2\n      pop\n        /* \"#utility.yul\":7434:7515   */\n    tag_214:\n        /* \"#utility.yul\":7562:7564   */\n      0x20\n        /* \"#utility.yul\":7554:7560   */\n      dup3\n        /* \"#utility.yul\":7551:7565   */\n      lt\n        /* \"#utility.yul\":7531:7549   */\n      dup2\n        /* \"#utility.yul\":7528:7566   */\n      sub\n        /* \"#utility.yul\":7525:7609   */\n      tag_215\n      jumpi\n        /* \"#utility.yul\":7581:7599   */\n      tag_216\n      tag_101\n      jump\t// in\n    tag_216:\n        /* \"#utility.yul\":7525:7609   */\n    tag_215:\n        /* \"#utility.yul\":7346:7615   */\n      pop\n        /* \"#utility.yul\":7295:7615   */\n      swap2\n      swap1\n      pop\n      jump\t// out\n        /* \"#utility.yul\":7621:7790   */\n    tag_102:\n        /* \"#utility.yul\":7761:7782   */\n      0x55736572206e6f74207265676973746572656400000000000000000000000000\n        /* \"#utility.yul\":7757:7758   */\n      0x00\n        /* \"#utility.yul\":7749:7755   */\n      dup3\n        /* \"#utility.yul\":7745:7759   */\n      add\n        /* \"#utility.yul\":7738:7783   */\n      mstore\n        /* \"#utility.yul\":7621:7790   */\n      pop\n      jump\t// out\n        /* \"#utility.yul\":7796:8162   */\n    tag_103:\n        /* \"#utility.yul\":7938:7941   */\n      0x00\n        /* \"#utility.yul\":7959:8026   */\n      tag_219\n        /* \"#utility.yul\":8023:8025   */\n      0x13\n        /* \"#utility.yul\":8018:8021   */\n      dup4\n        /* \"#utility.yul\":7959:8026   */\n      tag_87\n      jump\t// in\n    tag_219:\n        /* \"#utility.yul\":7952:8026   */\n      swap2\n      pop\n        /* \"#utility.yul\":8035:8128   */\n      tag_220\n        /* \"#utility.yul\":8124:8127   */\n      dup3\n        /* \"#utility.yul\":8035:8128   */\n      tag_102\n      jump\t// in\n    tag_220:\n        /* \"#utility.yul\":8153:8155   */\n      0x20\n        /* \"#utility.yul\":8148:8151   */\n      dup3\n        /* \"#utility.yul\":8144:8156   */\n      add\n        /* \"#utility.yul\":8137:8156   */\n      swap1\n      pop\n        /* \"#utility.yul\":7796:8162   */\n      swap2\n      swap1\n      pop\n      jump\t// out\n        /* \"#utility.yul\":8168:8587   */\n    tag_37:\n        /* \"#utility.yul\":8334:8338   */\n      0x00\n        /* \"#utility.yul\":8372:8374   */\n      0x20\n        /* \"#utility.yul\":8361:8370   */\n      dup3\n        /* \"#utility.yul\":8357:8375   */\n      add\n        /* \"#utility.yul\":8349:8375   */\n      swap1\n      pop\n        /* \"#utility.yul\":8421:8430   */\n      dup2\n        /* \"#utility.yul\":8415:8419   */\n      dup2\n        /* \"#utility.yul\":8411:8431   */\n      sub\n        /* \"#utility.yul\":8407:8408   */\n      0x00\n        /* \"#utility.yul\":8396:8405   */\n      dup4\n        /* \"#utility.yul\":8392:8409   */\n      add\n        /* \"#utility.yul\":8385:8432   */\n      mstore\n        /* \"#utility.yul\":8449:8580   */\n      tag_222\n        /* \"#utility.yul\":8575:8579   */\n      dup2\n        /* \"#utility.yul\":8449:8580   */\n      tag_103\n      jump\t// in\n    tag_222:\n        /* \"#utility.yul\":8441:8580   */\n      swap1\n      pop\n        /* \"#utility.yul\":8168:8587   */\n      swap2\n      swap1\n      pop\n      jump\t// out\n        /* \"#utility.yul\":8593:8773   */\n    tag_104:\n        /* \"#utility.yul\":8641:8718   */\n      0x4e487b7100000000000000000000000000000000000000000000000000000000\n        /* \"#utility.yul\":8638:8639   */\n      0x00\n        /* \"#utility.yul\":8631:8719   */\n      mstore\n        /* \"#utility.yul\":8738:8742   */\n      0x11\n        /* \"#utility.yul\":8735:8736   */\n      0x04\n        /* \"#utility.yul\":8728:8743   */\n      mstore\n        /* \"#utility.yul\":8762:8766   */\n      0x24\n        /* \"#utility.yul\":8759:8760   */\n      0x00\n        /* \"#utility.yul\":8752:8767   */\n      revert\n        /* \"#utility.yul\":8779:8970   */\n    tag_40:\n        /* \"#utility.yul\":8819:8822   */\n      0x00\n        /* \"#utility.yul\":8838:8858   */\n      tag_225\n        /* \"#utility.yul\":8856:8857   */\n      dup3\n        /* \"#utility.yul\":8838:8858   */\n      tag_76\n      jump\t// in\n    tag_225:\n        /* \"#utility.yul\":8833:8858   */\n      swap2\n      pop\n        /* \"#utility.yul\":8872:8892   */\n      tag_226\n        /* \"#utility.yul\":8890:8891   */\n      dup4\n        /* \"#utility.yul\":8872:8892   */\n      tag_76\n      jump\t// in\n    tag_226:\n        /* \"#utility.yul\":8867:8892   */\n      swap3\n      pop\n        /* \"#utility.yul\":8915:8916   */\n      dup3\n        /* \"#utility.yul\":8912:8913   */\n      dup3\n        /* \"#utility.yul\":8908:8917   */\n      add\n        /* \"#utility.yul\":8901:8917   */\n      swap1\n      pop\n        /* \"#utility.yul\":8936:8939   */\n      dup1\n        /* \"#utility.yul\":8933:8934   */\n      dup3\n        /* \"#utility.yul\":8930:8940   */\n      gt\n        /* \"#utility.yul\":8927:8963   */\n      iszero\n      tag_227\n      jumpi\n        /* \"#utility.yul\":8943:8961   */\n      tag_228\n      tag_104\n      jump\t// in\n    tag_228:\n        /* \"#utility.yul\":8927:8963   */\n    tag_227:\n        /* \"#utility.yul\":8779:8970   */\n      swap3\n      swap2\n      pop\n      pop\n      jump\t// out\n        /* \"#utility.yul\":8976:9137   */\n    tag_105:\n        /* \"#utility.yul\":9116:9129   */\n      0x4f54502065787069726564000000000000000000000000000000000000000000\n        /* \"#utility.yul\":9112:9113   */\n      0x00\n        /* \"#utility.yul\":9104:9110   */\n      dup3\n        /* \"#utility.yul\":9100:9114   */\n      add\n        /* \"#utility.yul\":9093:9130   */\n      mstore\n        /* \"#utility.yul\":8976:9137   */\n      pop\n      jump\t// out\n        /* \"#utility.yul\":9143:9509   */\n    tag_106:\n        /* \"#utility.yul\":9285:9288   */\n      0x00\n        /* \"#utility.yul\":9306:9373   */\n      tag_231\n        /* \"#utility.yul\":9370:9372   */\n      0x0b\n        /* \"#utility.yul\":9365:9368   */\n      dup4\n        /* \"#utility.yul\":9306:9373   */\n      tag_87\n      jump\t// in\n    tag_231:\n        /* \"#utility.yul\":9299:9373   */\n      swap2\n      pop\n        /* \"#utility.yul\":9382:9475   */\n      tag_232\n        /* \"#utility.yul\":9471:9474   */\n      dup3\n        /* \"#utility.yul\":9382:9475   */\n      tag_105\n      jump\t// in\n    tag_232:\n        /* \"#utility.yul\":9500:9502   */\n      0x20\n        /* \"#utility.yul\":9495:9498   */\n      dup3\n        /* \"#utility.yul\":9491:9503   */\n      add\n        /* \"#utility.yul\":9484:9503   */\n      swap1\n      pop\n        /* \"#utility.yul\":9143:9509   */\n      swap2\n      swap1\n      pop\n      jump\t// out\n        /* \"#utility.yul\":9515:9934   */\n    tag_43:\n        /* \"#utility.yul\":9681:9685   */\n      0x00\n        /* \"#utility.yul\":9719:9721   */\n      0x20\n        /* \"#utility.yul\":9708:9717   */\n      dup3\n        /* \"#utility.yul\":9704:9722   */\n      add\n        /* \"#utility.yul\":9696:9722   */\n      swap1\n      pop\n        /* \"#utility.yul\":9768:9777   */\n      dup2\n        /* \"#utility.yul\":9762:9766   */\n      dup2\n        /* \"#utility.yul\":9758:9778   */\n      sub\n        /* \"#utility.yul\":9754:9755   */\n      0x00\n        /* \"#utility.yul\":9743:9752   */\n      dup4\n        /* \"#utility.yul\":9739:9756   */\n      add\n        /* \"#utility.yul\":9732:9779   */\n      mstore\n        /* \"#utility.yul\":9796:9927   */\n      tag_234\n        /* \"#utility.yul\":9922:9926   */\n      dup2\n        /* \"#utility.yul\":9796:9927   */\n      tag_106\n      jump\t// in\n    tag_234:\n        /* \"#utility.yul\":9788:9927   */\n      swap1\n      pop\n        /* \"#utility.yul\":9515:9934   */\n      swap2\n      swap1\n      pop\n      jump\t// out\n        /* \"#utility.yul\":9940:10169   */\n    tag_107:\n        /* \"#utility.yul\":10080:10114   */\n      0x4f54502063616e206f6e6c792062652067656e65726174656420657665727920\n        /* \"#utility.yul\":10076:10077   */\n      0x00\n        /* \"#utility.yul\":10068:10074   */\n      dup3\n        /* \"#utility.yul\":10064:10078   */\n      add\n        /* \"#utility.yul\":10057:10115   */\n      mstore\n        /* \"#utility.yul\":10149:10161   */\n      0x3330207365636f6e647300000000000000000000000000000000000000000000\n        /* \"#utility.yul\":10144:10146   */\n      0x20\n        /* \"#utility.yul\":10136:10142   */\n      dup3\n        /* \"#utility.yul\":10132:10147   */\n      add\n        /* \"#utility.yul\":10125:10162   */\n      mstore\n        /* \"#utility.yul\":9940:10169   */\n      pop\n      jump\t// out\n        /* \"#utility.yul\":10175:10541   */\n    tag_108:\n        /* \"#utility.yul\":10317:10320   */\n      0x00\n        /* \"#utility.yul\":10338:10405   */\n      tag_237\n        /* \"#utility.yul\":10402:10404   */\n      0x2a\n        /* \"#utility.yul\":10397:10400   */\n      dup4\n        /* \"#utility.yul\":10338:10405   */\n      tag_87\n      jump\t// in\n    tag_237:\n        /* \"#utility.yul\":10331:10405   */\n      swap2\n      pop\n        /* \"#utility.yul\":10414:10507   */\n      tag_238\n        /* \"#utility.yul\":10503:10506   */\n      dup3\n        /* \"#utility.yul\":10414:10507   */\n      tag_107\n      jump\t// in\n    tag_238:\n        /* \"#utility.yul\":10532:10534   */\n      0x40\n        /* \"#utility.yul\":10527:10530   */\n      dup3\n        /* \"#utility.yul\":10523:10535   */\n      add\n        /* \"#utility.yul\":10516:10535   */\n      swap1\n      pop\n        /* \"#utility.yul\":10175:10541   */\n      swap2\n      swap1\n      pop\n      jump\t// out\n        /* \"#utility.yul\":10547:10966   */\n    tag_53:\n        /* \"#utility.yul\":10713:10717   */\n      0x00\n        /* \"#utility.yul\":10751:10753   */\n      0x20\n        /* \"#utility.yul\":10740:10749   */\n      dup3\n        /* \"#utility.yul\":10736:10754   */\n      add\n        /* \"#utility.yul\":10728:10754   */\n      swap1\n      pop\n        /* \"#utility.yul\":10800:10809   */\n      dup2\n        /* \"#utility.yul\":10794:10798   */\n      dup2\n        /* \"#utility.yul\":10790:10810   */\n      sub\n        /* \"#utility.yul\":10786:10787   */\n      0x00\n        /* \"#utility.yul\":10775:10784   */\n      dup4\n        /* \"#utility.yul\":10771:10788   */\n      add\n        /* \"#utility.yul\":10764:10811   */\n      mstore\n        /* \"#utility.yul\":10828:10959   */\n      tag_240\n        /* \"#utility.yul\":10954:10958   */\n      dup2\n        /* \"#utility.yul\":10828:10959   */\n      tag_108\n      jump\t// in\n    tag_240:\n        /* \"#utility.yul\":10820:10959   */\n      swap1\n      pop\n        /* \"#utility.yul\":10547:10966   */\n      swap2\n      swap1\n      pop\n      jump\t// out\n        /* \"#utility.yul\":10972:11051   */\n    tag_109:\n        /* \"#utility.yul\":11011:11018   */\n      0x00\n        /* \"#utility.yul\":11040:11045   */\n      dup2\n        /* \"#utility.yul\":11029:11045   */\n      swap1\n      pop\n        /* \"#utility.yul\":10972:11051   */\n      swap2\n      swap1\n      pop\n      jump\t// out\n        /* \"#utility.yul\":11057:11214   */\n    tag_110:\n        /* \"#utility.yul\":11162:11207   */\n      tag_243\n        /* \"#utility.yul\":11182:11206   */\n      tag_244\n        /* \"#utility.yul\":11200:11205   */\n      dup3\n        /* \"#utility.yul\":11182:11206   */\n      tag_76\n      jump\t// in\n    tag_244:\n        /* \"#utility.yul\":11162:11207   */\n      tag_109\n      jump\t// in\n    tag_243:\n        /* \"#utility.yul\":11157:11160   */\n      dup3\n        /* \"#utility.yul\":11150:11208   */\n      mstore\n        /* \"#utility.yul\":11057:11214   */\n      pop\n      pop\n      jump\t// out\n        /* \"#utility.yul\":11220:11617   */\n    tag_55:\n        /* \"#utility.yul\":11360:11363   */\n      0x00\n        /* \"#utility.yul\":11375:11450   */\n      tag_246\n        /* \"#utility.yul\":11446:11449   */\n      dup3\n        /* \"#utility.yul\":11437:11443   */\n      dup6\n        /* \"#utility.yul\":11375:11450   */\n      tag_110\n      jump\t// in\n    tag_246:\n        /* \"#utility.yul\":11475:11477   */\n      0x20\n        /* \"#utility.yul\":11470:11473   */\n      dup3\n        /* \"#utility.yul\":11466:11478   */\n      add\n        /* \"#utility.yul\":11459:11478   */\n      swap2\n      pop\n        /* \"#utility.yul\":11488:11563   */\n      tag_247\n        /* \"#utility.yul\":11559:11562   */\n      dup3\n        /* \"#utility.yul\":11550:11556   */\n      dup5\n        /* \"#utility.yul\":11488:11563   */\n      tag_110\n      jump\t// in\n    tag_247:\n        /* \"#utility.yul\":11588:11590   */\n      0x20\n        /* \"#utility.yul\":11583:11586   */\n      dup3\n        /* \"#utility.yul\":11579:11591   */\n      add\n        /* \"#utility.yul\":11572:11591   */\n      swap2\n      pop\n        /* \"#utility.yul\":11608:11611   */\n      dup2\n        /* \"#utility.yul\":11601:11611   */\n      swap1\n      pop\n        /* \"#utility.yul\":11220:11617   */\n      swap4\n      swap3\n      pop\n      pop\n      pop\n      jump\t// out\n        /* \"#utility.yul\":11623:11803   */\n    tag_111:\n        /* \"#utility.yul\":11671:11748   */\n      0x4e487b7100000000000000000000000000000000000000000000000000000000\n        /* \"#utility.yul\":11668:11669   */\n      0x00\n        /* \"#utility.yul\":11661:11749   */\n      mstore\n        /* \"#utility.yul\":11768:11772   */\n      0x12\n        /* \"#utility.yul\":11765:11766   */\n      0x04\n        /* \"#utility.yul\":11758:11773   */\n      mstore\n        /* \"#utility.yul\":11792:11796   */\n      0x24\n        /* \"#utility.yul\":11789:11790   */\n      0x00\n        /* \"#utility.yul\":11782:11797   */\n      revert\n        /* \"#utility.yul\":11809:11985   */\n    tag_57:\n        /* \"#utility.yul\":11841:11842   */\n      0x00\n        /* \"#utility.yul\":11858:11878   */\n      tag_250\n        /* \"#utility.yul\":11876:11877   */\n      dup3\n        /* \"#utility.yul\":11858:11878   */\n      tag_76\n      jump\t// in\n    tag_250:\n        /* \"#utility.yul\":11853:11878   */\n      swap2\n      pop\n        /* \"#utility.yul\":11892:11912   */\n      tag_251\n        /* \"#utility.yul\":11910:11911   */\n      dup4\n        /* \"#utility.yul\":11892:11912   */\n      tag_76\n      jump\t// in\n    tag_251:\n        /* \"#utility.yul\":11887:11912   */\n      swap3\n      pop\n        /* \"#utility.yul\":11931:11932   */\n      dup3\n        /* \"#utility.yul\":11921:11956   */\n      tag_252\n      jumpi\n        /* \"#utility.yul\":11936:11954   */\n      tag_253\n      tag_111\n      jump\t// in\n    tag_253:\n        /* \"#utility.yul\":11921:11956   */\n    tag_252:\n        /* \"#utility.yul\":11977:11978   */\n      dup3\n        /* \"#utility.yul\":11974:11975   */\n      dup3\n        /* \"#utility.yul\":11970:11979   */\n      mod\n        /* \"#utility.yul\":11965:11979   */\n      swap1\n      pop\n        /* \"#utility.yul\":11809:11985   */\n      swap3\n      swap2\n      pop\n      pop\n      jump\t// out\n        /* \"#utility.yul\":11991:12164   */\n    tag_112:\n        /* \"#utility.yul\":12131:12156   */\n      0x5573657220616c72656164792072656769737465726564000000000000000000\n        /* \"#utility.yul\":12127:12128   */\n      0x00\n        /* \"#utility.yul\":12119:12125   */\n      dup3\n        /* \"#utility.yul\":12115:12129   */\n      add\n        /* \"#utility.yul\":12108:12157   */\n      mstore\n        /* \"#utility.yul\":11991:12164   */\n      pop\n      jump\t// out\n        /* \"#utility.yul\":12170:12536   */\n    tag_113:\n        /* \"#utility.yul\":12312:12315   */\n      0x00\n        /* \"#utility.yul\":12333:12400   */\n      tag_256\n        /* \"#utility.yul\":12397:12399   */\n      0x17\n        /* \"#utility.yul\":12392:12395   */\n      dup4\n        /* \"#utility.yul\":12333:12400   */\n      tag_87\n      jump\t// in\n    tag_256:\n        /* \"#utility.yul\":12326:12400   */\n      swap2\n      pop\n        /* \"#utility.yul\":12409:12502   */\n      tag_257\n        /* \"#utility.yul\":12498:12501   */\n      dup3\n        /* \"#utility.yul\":12409:12502   */\n      tag_112\n      jump\t// in\n    tag_257:\n        /* \"#utility.yul\":12527:12529   */\n      0x20\n        /* \"#utility.yul\":12522:12525   */\n      dup3\n        /* \"#utility.yul\":12518:12530   */\n      add\n        /* \"#utility.yul\":12511:12530   */\n      swap1\n      pop\n        /* \"#utility.yul\":12170:12536   */\n      swap2\n      swap1\n      pop\n      jump\t// out\n        /* \"#utility.yul\":12542:12961   */\n    tag_68:\n        /* \"#utility.yul\":12708:12712   */\n      0x00\n        /* \"#utility.yul\":12746:12748   */\n      0x20\n        /* \"#utility.yul\":12735:12744   */\n      dup3\n        /* \"#utility.yul\":12731:12749   */\n      add\n        /* \"#utility.yul\":12723:12749   */\n      swap1\n      pop\n        /* \"#utility.yul\":12795:12804   */\n      dup2\n        /* \"#utility.yul\":12789:12793   */\n      dup2\n        /* \"#utility.yul\":12785:12805   */\n      sub\n        /* \"#utility.yul\":12781:12782   */\n      0x00\n        /* \"#utility.yul\":12770:12779   */\n      dup4\n        /* \"#utility.yul\":12766:12783   */\n      add\n        /* \"#utility.yul\":12759:12806   */\n      mstore\n        /* \"#utility.yul\":12823:12954   */\n      tag_259\n        /* \"#utility.yul\":12949:12953   */\n      dup2\n        /* \"#utility.yul\":12823:12954   */\n      tag_113\n      jump\t// in\n    tag_259:\n        /* \"#utility.yul\":12815:12954   */\n      swap1\n      pop\n        /* \"#utility.yul\":12542:12961   */\n      swap2\n      swap1\n      pop\n      jump\t// out\n        /* \"#utility.yul\":12967:13108   */\n    tag_114:\n        /* \"#utility.yul\":13016:13020   */\n      0x00\n        /* \"#utility.yul\":13039:13042   */\n      dup2\n        /* \"#utility.yul\":13031:13042   */\n      swap1\n      pop\n        /* \"#utility.yul\":13062:13065   */\n      dup2\n        /* \"#utility.yul\":13059:13060   */\n      0x00\n        /* \"#utility.yul\":13052:13066   */\n      mstore\n        /* \"#utility.yul\":13096:13100   */\n      0x20\n        /* \"#utility.yul\":13093:13094   */\n      0x00\n        /* \"#utility.yul\":13083:13101   */\n      keccak256\n        /* \"#utility.yul\":13075:13101   */\n      swap1\n      pop\n        /* \"#utility.yul\":12967:13108   */\n      swap2\n      swap1\n      pop\n      jump\t// out\n        /* \"#utility.yul\":13114:13207   */\n    tag_115:\n        /* \"#utility.yul\":13151:13157   */\n      0x00\n        /* \"#utility.yul\":13198:13200   */\n      0x20\n        /* \"#utility.yul\":13193:13195   */\n      0x1f\n        /* \"#utility.yul\":13186:13191   */\n      dup4\n        /* \"#utility.yul\":13182:13196   */\n      add\n        /* \"#utility.yul\":13178:13201   */\n      div\n        /* \"#utility.yul\":13168:13201   */\n      swap1\n      pop\n        /* \"#utility.yul\":13114:13207   */\n      swap2\n      swap1\n      pop\n      jump\t// out\n        /* \"#utility.yul\":13213:13320   */\n    tag_116:\n        /* \"#utility.yul\":13257:13265   */\n      0x00\n        /* \"#utility.yul\":13307:13312   */\n      dup3\n        /* \"#utility.yul\":13301:13305   */\n      dup3\n        /* \"#utility.yul\":13297:13313   */\n      shl\n        /* \"#utility.yul\":13276:13313   */\n      swap1\n      pop\n        /* \"#utility.yul\":13213:13320   */\n      swap3\n      swap2\n      pop\n      pop\n      jump\t// out\n        /* \"#utility.yul\":13326:13719   */\n    tag_117:\n        /* \"#utility.yul\":13395:13401   */\n      0x00\n        /* \"#utility.yul\":13445:13446   */\n      0x08\n        /* \"#utility.yul\":13433:13443   */\n      dup4\n        /* \"#utility.yul\":13429:13447   */\n      mul\n        /* \"#utility.yul\":13468:13565   */\n      tag_264\n        /* \"#utility.yul\":13498:13564   */\n      0xffffffffffffffffffffffffffffffffffffffffffffffffffffffffffffffff\n        /* \"#utility.yul\":13487:13496   */\n      dup3\n        /* \"#utility.yul\":13468:13565   */\n      tag_116\n      jump\t// in\n    tag_264:\n        /* \"#utility.yul\":13586:13625   */\n      tag_265\n        /* \"#utility.yul\":13616:13624   */\n      dup7\n        /* \"#utility.yul\":13605:13614   */\n      dup4\n        /* \"#utility.yul\":13586:13625   */\n      tag_116\n      jump\t// in\n    tag_265:\n        /* \"#utility.yul\":13574:13625   */\n      swap6\n      pop\n        /* \"#utility.yul\":13658:13662   */\n      dup1\n        /* \"#utility.yul\":13654:13663   */\n      not\n        /* \"#utility.yul\":13647:13652   */\n      dup5\n        /* \"#utility.yul\":13643:13664   */\n      and\n        /* \"#utility.yul\":13634:13664   */\n      swap4\n      pop\n        /* \"#utility.yul\":13707:13711   */\n      dup1\n        /* \"#utility.yul\":13697:13705   */\n      dup7\n        /* \"#utility.yul\":13693:13712   */\n      and\n        /* \"#utility.yul\":13686:13691   */\n      dup5\n        /* \"#utility.yul\":13683:13713   */\n      or\n        /* \"#utility.yul\":13673:13713   */\n      swap3\n      pop\n        /* \"#utility.yul\":13402:13719   */\n      pop\n      pop\n        /* \"#utility.yul\":13326:13719   */\n      swap4\n      swap3\n      pop\n      pop\n      pop\n      jump\t// out\n        /* \"#utility.yul\":13725:13785   */\n    tag_118:\n        /* \"#utility.yul\":13753:13756   */\n      0x00\n        /* \"#utility.yul\":13774:13779   */\n      dup2\n        /* \"#utility.yul\":13767:13779   */\n      swap1\n      pop\n        /* \"#utility.yul\":13725:13785   */\n      swap2\n      swap1\n      pop\n      jump\t// out\n        /* \"#utility.yul\":13791:13933   */\n    tag_119:\n        /* \"#utility.yul\":13841:13850   */\n      0x00\n        /* \"#utility.yul\":13874:13927   */\n      tag_268\n        /* \"#utility.yul\":13892:13926   */\n      tag_269\n        /* \"#utility.yul\":13901:13925   */\n      tag_270\n        /* \"#utility.yul\":13919:13924   */\n      dup5\n        /* \"#utility.yul\":13901:13925   */\n      tag_76\n      jump\t// in\n    tag_270:\n        /* \"#utility.yul\":13892:13926   */\n      tag_118\n      jump\t// in\n    tag_269:\n        /* \"#utility.yul\":13874:13927   */\n      tag_76\n      jump\t// in\n    tag_268:\n        /* \"#utility.yul\":13861:13927   */\n      swap1\n      pop\n        /* \"#utility.yul\":13791:13933   */\n      swap2\n      swap1\n      pop\n      jump\t// out\n        /* \"#utility.yul\":13939:14014   */\n    tag_120:\n        /* \"#utility.yul\":13982:13985   */\n      0x00\n        /* \"#utility.yul\":14003:14008   */\n      dup2\n        /* \"#utility.yul\":13996:14008   */\n      swap1\n      pop\n        /* \"#utility.yul\":13939:14014   */\n      swap2\n      swap1\n      pop\n      jump\t// out\n        /* \"#utility.yul\":14020:14289   */\n    tag_121:\n        /* \"#utility.yul\":14130:14169   */\n      tag_273\n        /* \"#utility.yul\":14161:14168   */\n      dup4\n        /* \"#utility.yul\":14130:14169   */\n      tag_119\n      jump\t// in\n    tag_273:\n        /* \"#utility.yul\":14191:14282   */\n      tag_274\n        /* \"#utility.yul\":14240:14281   */\n      tag_275\n        /* \"#utility.yul\":14264:14280   */\n      dup3\n        /* \"#utility.yul\":14240:14281   */\n      tag_120\n      jump\t// in\n    tag_275:\n        /* \"#utility.yul\":14232:14238   */\n      dup5\n        /* \"#utility.yul\":14225:14229   */\n      dup5\n        /* \"#utility.yul\":14219:14230   */\n      sload\n        /* \"#utility.yul\":14191:14282   */\n      tag_117\n      jump\t// in\n    tag_274:\n        /* \"#utility.yul\":14185:14189   */\n      dup3\n        /* \"#utility.yul\":14178:14283   */\n      sstore\n        /* \"#utility.yul\":14096:14289   */\n      pop\n        /* \"#utility.yul\":14020:14289   */\n      pop\n      pop\n      pop\n      jump\t// out\n        /* \"#utility.yul\":14295:14368   */\n    tag_122:\n        /* \"#utility.yul\":14340:14343   */\n      0x00\n        /* \"#utility.yul\":14295:14368   */\n      swap1\n      jump\t// out\n        /* \"#utility.yul\":14374:14563   */\n    tag_123:\n        /* \"#utility.yul\":14451:14483   */\n      tag_278\n      tag_122\n      jump\t// in\n    tag_278:\n        /* \"#utility.yul\":14492:14557   */\n      tag_279\n        /* \"#utility.yul\":14550:14556   */\n      dup2\n        /* \"#utility.yul\":14542:14548   */\n      dup5\n        /* \"#utility.yul\":14536:14540   */\n      dup5\n        /* \"#utility.yul\":14492:14557   */\n      tag_121\n      jump\t// in\n    tag_279:\n        /* \"#utility.yul\":14427:14563   */\n      pop\n        /* \"#utility.yul\":14374:14563   */\n      pop\n      pop\n      jump\t// out\n        /* \"#utility.yul\":14569:14755   */\n    tag_124:\n        /* \"#utility.yul\":14629:14749   */\n    tag_281:\n        /* \"#utility.yul\":14646:14649   */\n      dup2\n        /* \"#utility.yul\":14639:14644   */\n      dup2\n        /* \"#utility.yul\":14636:14650   */\n      lt\n        /* \"#utility.yul\":14629:14749   */\n      iszero\n      tag_283\n      jumpi\n        /* \"#utility.yul\":14700:14739   */\n      tag_284\n        /* \"#utility.yul\":14737:14738   */\n      0x00\n        /* \"#utility.yul\":14730:14735   */\n      dup3\n        /* \"#utility.yul\":14700:14739   */\n      tag_123\n      jump\t// in\n    tag_284:\n        /* \"#utility.yul\":14673:14674   */\n      0x01\n        /* \"#utility.yul\":14666:14671   */\n      dup2\n        /* \"#utility.yul\":14662:14675   */\n      add\n        /* \"#utility.yul\":14653:14675   */\n      swap1\n      pop\n        /* \"#utility.yul\":14629:14749   */\n      jump(tag_281)\n    tag_283:\n        /* \"#utility.yul\":14569:14755   */\n      pop\n      pop\n      jump\t// out\n        /* \"#utility.yul\":14761:15304   */\n    tag_125:\n        /* \"#utility.yul\":14862:14864   */\n      0x1f\n        /* \"#utility.yul\":14857:14860   */\n      dup3\n        /* \"#utility.yul\":14854:14865   */\n      gt\n        /* \"#utility.yul\":14851:15297   */\n      iszero\n      tag_286\n      jumpi\n        /* \"#utility.yul\":14896:14934   */\n      tag_287\n        /* \"#utility.yul\":14928:14933   */\n      dup2\n        /* \"#utility.yul\":14896:14934   */\n      tag_114\n      jump\t// in\n    tag_287:\n        /* \"#utility.yul\":14980:15009   */\n      tag_288\n        /* \"#utility.yul\":14998:15008   */\n      dup5\n        /* \"#utility.yul\":14980:15009   */\n      tag_115\n      jump\t// in\n    tag_288:\n        /* \"#utility.yul\":14970:14978   */\n      dup2\n        /* \"#utility.yul\":14966:15010   */\n      add\n        /* \"#utility.yul\":15163:15165   */\n      0x20\n        /* \"#utility.yul\":15151:15161   */\n      dup6\n        /* \"#utility.yul\":15148:15166   */\n      lt\n        /* \"#utility.yul\":15145:15194   */\n      iszero\n      tag_289\n      jumpi\n        /* \"#utility.yul\":15184:15192   */\n      dup2\n        /* \"#utility.yul\":15169:15192   */\n      swap1\n      pop\n        /* \"#utility.yul\":15145:15194   */\n    tag_289:\n        /* \"#utility.yul\":15207:15287   */\n      tag_290\n        /* \"#utility.yul\":15263:15285   */\n      tag_291\n        /* \"#utility.yul\":15281:15284   */\n      dup6\n        /* \"#utility.yul\":15263:15285   */\n      tag_115\n      jump\t// in\n    tag_291:\n        /* \"#utility.yul\":15253:15261   */\n      dup4\n        /* \"#utility.yul\":15249:15286   */\n      add\n        /* \"#utility.yul\":15236:15247   */\n      dup3\n        /* \"#utility.yul\":15207:15287   */\n      tag_124\n      jump\t// in\n    tag_290:\n        /* \"#utility.yul\":14866:15297   */\n      pop\n      pop\n        /* \"#utility.yul\":14851:15297   */\n    tag_286:\n        /* \"#utility.yul\":14761:15304   */\n      pop\n      pop\n      pop\n      jump\t// out\n        /* \"#utility.yul\":15310:15427   */\n    tag_126:\n        /* \"#utility.yul\":15364:15372   */\n      0x00\n        /* \"#utility.yul\":15414:15419   */\n      dup3\n        /* \"#utility.yul\":15408:15412   */\n      dup3\n        /* \"#utility.yul\":15404:15420   */\n      shr\n        /* \"#utility.yul\":15383:15420   */\n      swap1\n      pop\n        /* \"#utility.yul\":15310:15427   */\n      swap3\n      swap2\n      pop\n      pop\n      jump\t// out\n        /* \"#utility.yul\":15433:15602   */\n    tag_127:\n        /* \"#utility.yul\":15477:15483   */\n      0x00\n        /* \"#utility.yul\":15510:15561   */\n      tag_294\n        /* \"#utility.yul\":15558:15559   */\n      0x00\n        /* \"#utility.yul\":15554:15560   */\n      not\n        /* \"#utility.yul\":15546:15551   */\n      dup5\n        /* \"#utility.yul\":15543:15544   */\n      0x08\n        /* \"#utility.yul\":15539:15552   */\n      mul\n        /* \"#utility.yul\":15510:15561   */\n      tag_126\n      jump\t// in\n    tag_294:\n        /* \"#utility.yul\":15506:15562   */\n      not\n        /* \"#utility.yul\":15591:15595   */\n      dup1\n        /* \"#utility.yul\":15585:15589   */\n      dup4\n        /* \"#utility.yul\":15581:15596   */\n      and\n        /* \"#utility.yul\":15571:15596   */\n      swap2\n      pop\n        /* \"#utility.yul\":15484:15602   */\n      pop\n        /* \"#utility.yul\":15433:15602   */\n      swap3\n      swap2\n      pop\n      pop\n      jump\t// out\n        /* \"#utility.yul\":15607:15902   */\n    tag_128:\n        /* \"#utility.yul\":15683:15687   */\n      0x00\n        /* \"#utility.yul\":15829:15858   */\n      tag_296\n        /* \"#utility.yul\":15854:15857   */\n      dup4\n        /* \"#utility.yul\":15848:15852   */\n      dup4\n        /* \"#utility.yul\":15829:15858   */\n      tag_127\n      jump\t// in\n    tag_296:\n        /* \"#utility.yul\":15821:15858   */\n      swap2\n      pop\n        /* \"#utility.yul\":15891:15894   */\n      dup3\n        /* \"#utility.yul\":15888:15889   */\n      0x02\n        /* \"#utility.yul\":15884:15895   */\n      mul\n        /* \"#utility.yul\":15878:15882   */\n      dup3\n        /* \"#utility.yul\":15875:15896   */\n      or\n        /* \"#utility.yul\":15867:15896   */\n      swap1\n      pop\n        /* \"#utility.yul\":15607:15902   */\n      swap3\n      swap2\n      pop\n      pop\n      jump\t// out\n        /* \"#utility.yul\":15907:17302   */\n    tag_70:\n        /* \"#utility.yul\":16024:16061   */\n      tag_298\n        /* \"#utility.yul\":16057:16060   */\n      dup3\n        /* \"#utility.yul\":16024:16061   */\n      tag_86\n      jump\t// in\n    tag_298:\n        /* \"#utility.yul\":16126:16144   */\n      0xffffffffffffffff\n        /* \"#utility.yul\":16118:16124   */\n      dup2\n        /* \"#utility.yul\":16115:16145   */\n      gt\n        /* \"#utility.yul\":16112:16168   */\n      iszero\n      tag_299\n      jumpi\n        /* \"#utility.yul\":16148:16166   */\n      tag_300\n      tag_94\n      jump\t// in\n    tag_300:\n        /* \"#utility.yul\":16112:16168   */\n    tag_299:\n        /* \"#utility.yul\":16192:16230   */\n      tag_301\n        /* \"#utility.yul\":16224:16228   */\n      dup3\n        /* \"#utility.yul\":16218:16229   */\n      sload\n        /* \"#utility.yul\":16192:16230   */\n      tag_34\n      jump\t// in\n    tag_301:\n        /* \"#utility.yul\":16277:16344   */\n      tag_302\n        /* \"#utility.yul\":16337:16343   */\n      dup3\n        /* \"#utility.yul\":16329:16335   */\n      dup3\n        /* \"#utility.yul\":16323:16327   */\n      dup6\n        /* \"#utility.yul\":16277:16344   */\n      tag_125\n      jump\t// in\n    tag_302:\n        /* \"#utility.yul\":16371:16372   */\n      0x00\n        /* \"#utility.yul\":16395:16399   */\n      0x20\n        /* \"#utility.yul\":16382:16399   */\n      swap1\n      pop\n        /* \"#utility.yul\":16427:16429   */\n      0x1f\n        /* \"#utility.yul\":16419:16425   */\n      dup4\n        /* \"#utility.yul\":16416:16430   */\n      gt\n        /* \"#utility.yul\":16444:16445   */\n      0x01\n        /* \"#utility.yul\":16439:17057   */\n      dup2\n      eq\n      tag_304\n      jumpi\n        /* \"#utility.yul\":17101:17102   */\n      0x00\n        /* \"#utility.yul\":17118:17124   */\n      dup5\n        /* \"#utility.yul\":17115:17192   */\n      iszero\n      tag_305\n      jumpi\n        /* \"#utility.yul\":17167:17176   */\n      dup3\n        /* \"#utility.yul\":17162:17165   */\n      dup8\n        /* \"#utility.yul\":17158:17177   */\n      add\n        /* \"#utility.yul\":17152:17178   */\n      mload\n        /* \"#utility.yul\":17143:17178   */\n      swap1\n      pop\n        /* \"#utility.yul\":17115:17192   */\n    tag_305:\n        /* \"#utility.yul\":17218:17285   */\n      tag_306\n        /* \"#utility.yul\":17278:17284   */\n      dup6\n        /* \"#utility.yul\":17271:17276   */\n      dup3\n        /* \"#utility.yul\":17218:17285   */\n      tag_128\n      jump\t// in\n    tag_306:\n        /* \"#utility.yul\":17212:17216   */\n      dup7\n        /* \"#utility.yul\":17205:17286   */\n      sstore\n        /* \"#utility.yul\":17074:17296   */\n      pop\n        /* \"#utility.yul\":16409:17296   */\n      jump(tag_303)\n        /* \"#utility.yul\":16439:17057   */\n    tag_304:\n        /* \"#utility.yul\":16491:16495   */\n      0x1f\n        /* \"#utility.yul\":16487:16496   */\n      not\n        /* \"#utility.yul\":16479:16485   */\n      dup5\n        /* \"#utility.yul\":16475:16497   */\n      and\n        /* \"#utility.yul\":16525:16562   */\n      tag_307\n        /* \"#utility.yul\":16557:16561   */\n      dup7\n        /* \"#utility.yul\":16525:16562   */\n      tag_114\n      jump\t// in\n    tag_307:\n        /* \"#utility.yul\":16584:16585   */\n      0x00\n        /* \"#utility.yul\":16598:16806   */\n    tag_308:\n        /* \"#utility.yul\":16612:16619   */\n      dup3\n        /* \"#utility.yul\":16609:16610   */\n      dup2\n        /* \"#utility.yul\":16606:16620   */\n      lt\n        /* \"#utility.yul\":16598:16806   */\n      iszero\n      tag_310\n      jumpi\n        /* \"#utility.yul\":16691:16700   */\n      dup5\n        /* \"#utility.yul\":16686:16689   */\n      dup10\n        /* \"#utility.yul\":16682:16701   */\n      add\n        /* \"#utility.yul\":16676:16702   */\n      mload\n        /* \"#utility.yul\":16668:16674   */\n      dup3\n        /* \"#utility.yul\":16661:16703   */\n      sstore\n        /* \"#utility.yul\":16742:16743   */\n      0x01\n        /* \"#utility.yul\":16734:16740   */\n      dup3\n        /* \"#utility.yul\":16730:16744   */\n      add\n        /* \"#utility.yul\":16720:16744   */\n      swap2\n      pop\n        /* \"#utility.yul\":16789:16791   */\n      0x20\n        /* \"#utility.yul\":16778:16787   */\n      dup6\n        /* \"#utility.yul\":16774:16792   */\n      add\n        /* \"#utility.yul\":16761:16792   */\n      swap5\n      pop\n        /* \"#utility.yul\":16635:16639   */\n      0x20\n        /* \"#utility.yul\":16632:16633   */\n      dup2\n        /* \"#utility.yul\":16628:16640   */\n      add\n        /* \"#utility.yul\":16623:16640   */\n      swap1\n      pop\n        /* \"#utility.yul\":16598:16806   */\n      jump(tag_308)\n    tag_310:\n        /* \"#utility.yul\":16834:16840   */\n      dup7\n        /* \"#utility.yul\":16825:16832   */\n      dup4\n        /* \"#utility.yul\":16822:16841   */\n      lt\n        /* \"#utility.yul\":16819:16998   */\n      iszero\n      tag_311\n      jumpi\n        /* \"#utility.yul\":16892:16901   */\n      dup5\n        /* \"#utility.yul\":16887:16890   */\n      dup10\n        /* \"#utility.yul\":16883:16902   */\n      add\n        /* \"#utility.yul\":16877:16903   */\n      mload\n        /* \"#utility.yul\":16935:16983   */\n      tag_312\n        /* \"#utility.yul\":16977:16981   */\n      0x1f\n        /* \"#utility.yul\":16969:16975   */\n      dup10\n        /* \"#utility.yul\":16965:16982   */\n      and\n        /* \"#utility.yul\":16954:16963   */\n      dup3\n        /* \"#utility.yul\":16935:16983   */\n      tag_127\n      jump\t// in\n    tag_312:\n        /* \"#utility.yul\":16927:16933   */\n      dup4\n        /* \"#utility.yul\":16920:16984   */\n      sstore\n        /* \"#utility.yul\":16842:16998   */\n      pop\n        /* \"#utility.yul\":16819:16998   */\n    tag_311:\n        /* \"#utility.yul\":17044:17045   */\n      0x01\n        /* \"#utility.yul\":17040:17041   */\n      0x02\n        /* \"#utility.yul\":17032:17038   */\n      dup9\n        /* \"#utility.yul\":17028:17042   */\n      mul\n        /* \"#utility.yul\":17024:17046   */\n      add\n        /* \"#utility.yul\":17018:17022   */\n      dup9\n        /* \"#utility.yul\":17011:17047   */\n      sstore\n        /* \"#utility.yul\":16446:17057   */\n      pop\n      pop\n      pop\n        /* \"#utility.yul\":16409:17296   */\n    tag_303:\n      pop\n        /* \"#utility.yul\":15999:17302   */\n      pop\n      pop\n      pop\n        /* \"#utility.yul\":15907:17302   */\n      pop\n      pop\n      jump\t// out\n        /* \"#utility.yul\":17308:17621   */\n    tag_72:\n        /* \"#utility.yul\":17421:17425   */\n      0x00\n        /* \"#utility.yul\":17459:17461   */\n      0x20\n        /* \"#utility.yul\":17448:17457   */\n      dup3\n        /* \"#utility.yul\":17444:17462   */\n      add\n        /* \"#utility.yul\":17436:17462   */\n      swap1\n      pop\n        /* \"#utility.yul\":17508:17517   */\n      dup2\n        /* \"#utility.yul\":17502:17506   */\n      dup2\n        /* \"#utility.yul\":17498:17518   */\n      sub\n        /* \"#utility.yul\":17494:17495   */\n      0x00\n        /* \"#utility.yul\":17483:17492   */\n      dup4\n        /* \"#utility.yul\":17479:17496   */\n      add\n        /* \"#utility.yul\":17472:17519   */\n      mstore\n        /* \"#utility.yul\":17536:17614   */\n      tag_314\n        /* \"#utility.yul\":17609:17613   */\n      dup2\n        /* \"#utility.yul\":17600:17606   */\n      dup5\n        /* \"#utility.yul\":17536:17614   */\n      tag_90\n      jump\t// in\n    tag_314:\n        /* \"#utility.yul\":17528:17614   */\n      swap1\n      pop\n        /* \"#utility.yul\":17308:17621   */\n      swap3\n      swap2\n      pop\n      pop\n      jump\t// out\n\n    auxdata: 0xa264697066735822122009b563fbf98ceada02c1bc0bf4f479d51bac7044007f31e07812bf2155dc134864736f6c634300081a0033\n}\n",
				"bytecode": {
					"linkReferences": {},
					"object": "6080604052348015600e575f80fd5b506111118061001c5f395ff3fe608060405234801561000f575f80fd5b5060043610610055575f3560e01c8063195ad92614610059578063405efc15146100895780637b0be3d7146100a7578063a87430ba146100d7578063ea87152b1461010a575b5f80fd5b610073600480360381019061006e91906107ca565b610126565b604051610080919061080f565b60405180910390f35b6100916102db565b60405161009e9190610837565b60405180910390f35b6100c160048036038101906100bc91906108aa565b6104df565b6040516100ce9190610837565b60405180910390f35b6100f160048036038101906100ec91906108aa565b6104f4565b6040516101019493929190610954565b60405180910390f35b610124600480360381019061011f9190610aca565b6105c4565b005b5f805f803373ffffffffffffffffffffffffffffffffffffffff1673ffffffffffffffffffffffffffffffffffffffff1681526020019081526020015f205f01805461017190610b51565b9050116101b3576040517f08c379a00000000000000000000000000000000000000000000000000000000081526004016101aa90610bcb565b60405180910390fd5b601e5f803373ffffffffffffffffffffffffffffffffffffffff1673ffffffffffffffffffffffffffffffffffffffff1681526020019081526020015f20600301546101ff9190610c16565b421115610241576040517f08c379a000000000000000000000000000000000000000000000000000000000815260040161023890610c93565b60405180910390fd5b5f8260015f3373ffffffffffffffffffffffffffffffffffffffff1673ffffffffffffffffffffffffffffffffffffffff1681526020019081526020015f20541490503373ffffffffffffffffffffffffffffffffffffffff167f297fcf4a80c00fc75b80bbe3ce4f2c31caaaeee3f0b636677d53ed059538e1dd826040516102ca919061080f565b60405180910390a280915050919050565b5f805f803373ffffffffffffffffffffffffffffffffffffffff1673ffffffffffffffffffffffffffffffffffffffff1681526020019081526020015f205f01805461032690610b51565b905011610368576040517f08c379a000000000000000000000000000000000000000000000000000000000815260040161035f90610bcb565b60405180910390fd5b5f805f3373ffffffffffffffffffffffffffffffffffffffff1673ffffffffffffffffffffffffffffffffffffffff1681526020019081526020015f2090505f429050601e82600301546103bc9190610c16565b81116103fd576040517f08c379a00000000000000000000000000000000000000000000000000000000081526004016103f490610d21565b60405180910390fd5b5f620f4240836002015483604051602001610419929190610d5f565b604051602081830303815290604052805190602001205f1c61043b9190610db7565b90508183600301819055508060015f3373ffffffffffffffffffffffffffffffffffffffff1673ffffffffffffffffffffffffffffffffffffffff1681526020019081526020015f20819055503373ffffffffffffffffffffffffffffffffffffffff167f7ea1f4aa00f3fe2cef237cef49e67b086d030c247442a5cb20be7c6a807a6c93826040516104ce9190610837565b60405180910390a280935050505090565b6001602052805f5260405f205f915090505481565b5f602052805f5260405f205f91509050805f01805461051290610b51565b80601f016020809104026020016040519081016040528092919081815260200182805461053e90610b51565b80156105895780601f1061056057610100808354040283529160200191610589565b820191905f5260205f20905b81548152906001019060200180831161056c57829003601f168201915b505050505090806001015f9054906101000a900473ffffffffffffffffffffffffffffffffffffffff16908060020154908060030154905084565b5f805f3373ffffffffffffffffffffffffffffffffffffffff1673ffffffffffffffffffffffffffffffffffffffff1681526020019081526020015f205f01805461060e90610b51565b905014610650576040517f08c379a000000000000000000000000000000000000000000000000000000000815260040161064790610e31565b60405180910390fd5b60405180608001604052808381526020013373ffffffffffffffffffffffffffffffffffffffff168152602001828152602001428152505f803373ffffffffffffffffffffffffffffffffffffffff1673ffffffffffffffffffffffffffffffffffffffff1681526020019081526020015f205f820151815f0190816106d69190610fec565b506020820151816001015f6101000a81548173ffffffffffffffffffffffffffffffffffffffff021916908373ffffffffffffffffffffffffffffffffffffffff16021790555060408201518160020155606082015181600301559050503373ffffffffffffffffffffffffffffffffffffffff167f48cac28ad4dc618e15f4c2dd5e97751182f166de97b25618318b2112aa951a2f8360405161077a91906110bb565b60405180910390a25050565b5f604051905090565b5f80fd5b5f80fd5b5f819050919050565b6107a981610797565b81146107b3575f80fd5b50565b5f813590506107c4816107a0565b92915050565b5f602082840312156107df576107de61078f565b5b5f6107ec848285016107b6565b91505092915050565b5f8115159050919050565b610809816107f5565b82525050565b5f6020820190506108225f830184610800565b92915050565b61083181610797565b82525050565b5f60208201905061084a5f830184610828565b92915050565b5f73ffffffffffffffffffffffffffffffffffffffff82169050919050565b5f61087982610850565b9050919050565b6108898161086f565b8114610893575f80fd5b50565b5f813590506108a481610880565b92915050565b5f602082840312156108bf576108be61078f565b5b5f6108cc84828501610896565b91505092915050565b5f81519050919050565b5f82825260208201905092915050565b8281835e5f83830152505050565b5f601f19601f8301169050919050565b5f610917826108d5565b61092181856108df565b93506109318185602086016108ef565b61093a816108fd565b840191505092915050565b61094e8161086f565b82525050565b5f6080820190508181035f83015261096c818761090d565b905061097b6020830186610945565b6109886040830185610828565b6109956060830184610828565b95945050505050565b5f80fd5b5f80fd5b7f4e487b71000000000000000000000000000000000000000000000000000000005f52604160045260245ffd5b6109dc826108fd565b810181811067ffffffffffffffff821117156109fb576109fa6109a6565b5b80604052505050565b5f610a0d610786565b9050610a1982826109d3565b919050565b5f67ffffffffffffffff821115610a3857610a376109a6565b5b610a41826108fd565b9050602081019050919050565b828183375f83830152505050565b5f610a6e610a6984610a1e565b610a04565b905082815260208101848484011115610a8a57610a896109a2565b5b610a95848285610a4e565b509392505050565b5f82601f830112610ab157610ab061099e565b5b8135610ac1848260208601610a5c565b91505092915050565b5f8060408385031215610ae057610adf61078f565b5b5f83013567ffffffffffffffff811115610afd57610afc610793565b5b610b0985828601610a9d565b9250506020610b1a858286016107b6565b9150509250929050565b7f4e487b71000000000000000000000000000000000000000000000000000000005f52602260045260245ffd5b5f6002820490506001821680610b6857607f821691505b602082108103610b7b57610b7a610b24565b5b50919050565b7f55736572206e6f742072656769737465726564000000000000000000000000005f82015250565b5f610bb56013836108df565b9150610bc082610b81565b602082019050919050565b5f6020820190508181035f830152610be281610ba9565b9050919050565b7f4e487b71000000000000000000000000000000000000000000000000000000005f52601160045260245ffd5b5f610c2082610797565b9150610c2b83610797565b9250828201905080821115610c4357610c42610be9565b5b92915050565b7f4f545020657870697265640000000000000000000000000000000000000000005f82015250565b5f610c7d600b836108df565b9150610c8882610c49565b602082019050919050565b5f6020820190508181035f830152610caa81610c71565b9050919050565b7f4f54502063616e206f6e6c792062652067656e657261746564206576657279205f8201527f3330207365636f6e647300000000000000000000000000000000000000000000602082015250565b5f610d0b602a836108df565b9150610d1682610cb1565b604082019050919050565b5f6020820190508181035f830152610d3881610cff565b9050919050565b5f819050919050565b610d59610d5482610797565b610d3f565b82525050565b5f610d6a8285610d48565b602082019150610d7a8284610d48565b6020820191508190509392505050565b7f4e487b71000000000000000000000000000000000000000000000000000000005f52601260045260245ffd5b5f610dc182610797565b9150610dcc83610797565b925082610ddc57610ddb610d8a565b5b828206905092915050565b7f5573657220616c726561647920726567697374657265640000000000000000005f82015250565b5f610e1b6017836108df565b9150610e2682610de7565b602082019050919050565b5f6020820190508181035f830152610e4881610e0f565b9050919050565b5f819050815f5260205f209050919050565b5f6020601f8301049050919050565b5f82821b905092915050565b5f60088302610eab7fffffffffffffffffffffffffffffffffffffffffffffffffffffffffffffffff82610e70565b610eb58683610e70565b95508019841693508086168417925050509392505050565b5f819050919050565b5f610ef0610eeb610ee684610797565b610ecd565b610797565b9050919050565b5f819050919050565b610f0983610ed6565b610f1d610f1582610ef7565b848454610e7c565b825550505050565b5f90565b610f31610f25565b610f3c818484610f00565b505050565b5b81811015610f5f57610f545f82610f29565b600181019050610f42565b5050565b601f821115610fa457610f7581610e4f565b610f7e84610e61565b81016020851015610f8d578190505b610fa1610f9985610e61565b830182610f41565b50505b505050565b5f82821c905092915050565b5f610fc45f1984600802610fa9565b1980831691505092915050565b5f610fdc8383610fb5565b9150826002028217905092915050565b610ff5826108d5565b67ffffffffffffffff81111561100e5761100d6109a6565b5b6110188254610b51565b611023828285610f63565b5f60209050601f831160018114611054575f8415611042578287015190505b61104c8582610fd1565b8655506110b3565b601f19841661106286610e4f565b5f5b8281101561108957848901518255600182019150602085019450602081019050611064565b868310156110a657848901516110a2601f891682610fb5565b8355505b6001600288020188555050505b505050505050565b5f6020820190508181035f8301526110d3818461090d565b90509291505056fea264697066735822122009b563fbf98ceada02c1bc0bf4f479d51bac7044007f31e07812bf2155dc134864736f6c634300081a0033",
					"opcodes": "PUSH1 0x80 PUSH1 0x40 MSTORE CALLVALUE DUP1 ISZERO PUSH1 0xE JUMPI PUSH0 DUP1 REVERT JUMPDEST POP PUSH2 0x1111 DUP1 PUSH2 0x1C PUSH0 CODECOPY PUSH0 RETURN INVALID PUSH1 0x80 PUSH1 0x40 MSTORE CALLVALUE DUP1 ISZERO PUSH2 0xF JUMPI PUSH0 DUP1 REVERT JUMPDEST POP PUSH1 0x4 CALLDATASIZE LT PUSH2 0x55 JUMPI PUSH0 CALLDATALOAD PUSH1 0xE0 SHR DUP1 PUSH4 0x195AD926 EQ PUSH2 0x59 JUMPI DUP1 PUSH4 0x405EFC15 EQ PUSH2 0x89 JUMPI DUP1 PUSH4 0x7B0BE3D7 EQ PUSH2 0xA7 JUMPI DUP1 PUSH4 0xA87430BA EQ PUSH2 0xD7 JUMPI DUP1 PUSH4 0xEA87152B EQ PUSH2 0x10A JUMPI JUMPDEST PUSH0 DUP1 REVERT JUMPDEST PUSH2 0x73 PUSH1 0x4 DUP1 CALLDATASIZE SUB DUP2 ADD SWAP1 PUSH2 0x6E SWAP2 SWAP1 PUSH2 0x7CA JUMP JUMPDEST PUSH2 0x126 JUMP JUMPDEST PUSH1 0x40 MLOAD PUSH2 0x80 SWAP2 SWAP1 PUSH2 0x80F JUMP JUMPDEST PUSH1 0x40 MLOAD DUP1 SWAP2 SUB SWAP1 RETURN JUMPDEST PUSH2 0x91 PUSH2 0x2DB JUMP JUMPDEST PUSH1 0x40 MLOAD PUSH2 0x9E SWAP2 SWAP1 PUSH2 0x837 JUMP JUMPDEST PUSH1 0x40 MLOAD DUP1 SWAP2 SUB SWAP1 RETURN JUMPDEST PUSH2 0xC1 PUSH1 0x4 DUP1 CALLDATASIZE SUB DUP2 ADD SWAP1 PUSH2 0xBC SWAP2 SWAP1 PUSH2 0x8AA JUMP JUMPDEST PUSH2 0x4DF JUMP JUMPDEST PUSH1 0x40 MLOAD PUSH2 0xCE SWAP2 SWAP1 PUSH2 0x837 JUMP JUMPDEST PUSH1 0x40 MLOAD DUP1 SWAP2 SUB SWAP1 RETURN JUMPDEST PUSH2 0xF1 PUSH1 0x4 DUP1 CALLDATASIZE SUB DUP2 ADD SWAP1 PUSH2 0xEC SWAP2 SWAP1 PUSH2 0x8AA JUMP JUMPDEST PUSH2 0x4F4 JUMP JUMPDEST PUSH1 0x40 MLOAD PUSH2 0x101 SWAP5 SWAP4 SWAP3 SWAP2 SWAP1 PUSH2 0x954 JUMP JUMPDEST PUSH1 0x40 MLOAD DUP1 SWAP2 SUB SWAP1 RETURN JUMPDEST PUSH2 0x124 PUSH1 0x4 DUP1 CALLDATASIZE SUB DUP2 ADD SWAP1 PUSH2 0x11F SWAP2 SWAP1 PUSH2 0xACA JUMP JUMPDEST PUSH2 0x5C4 JUMP JUMPDEST STOP JUMPDEST PUSH0 DUP1 PUSH0 DUP1 CALLER PUSH20 0xFFFFFFFFFFFFFFFFFFFFFFFFFFFFFFFFFFFFFFFF AND PUSH20 0xFFFFFFFFFFFFFFFFFFFFFFFFFFFFFFFFFFFFFFFF AND DUP2 MSTORE PUSH1 0x20 ADD SWAP1 DUP2 MSTORE PUSH1 0x20 ADD PUSH0 KECCAK256 PUSH0 ADD DUP1 SLOAD PUSH2 0x171 SWAP1 PUSH2 0xB51 JUMP JUMPDEST SWAP1 POP GT PUSH2 0x1B3 JUMPI PUSH1 0x40 MLOAD PUSH32 0x8C379A000000000000000000000000000000000000000000000000000000000 DUP2 MSTORE PUSH1 0x4 ADD PUSH2 0x1AA SWAP1 PUSH2 0xBCB JUMP JUMPDEST PUSH1 0x40 MLOAD DUP1 SWAP2 SUB SWAP1 REVERT JUMPDEST PUSH1 0x1E PUSH0 DUP1 CALLER PUSH20 0xFFFFFFFFFFFFFFFFFFFFFFFFFFFFFFFFFFFFFFFF AND PUSH20 0xFFFFFFFFFFFFFFFFFFFFFFFFFFFFFFFFFFFFFFFF AND DUP2 MSTORE PUSH1 0x20 ADD SWAP1 DUP2 MSTORE PUSH1 0x20 ADD PUSH0 KECCAK256 PUSH1 0x3 ADD SLOAD PUSH2 0x1FF SWAP2 SWAP1 PUSH2 0xC16 JUMP JUMPDEST TIMESTAMP GT ISZERO PUSH2 0x241 JUMPI PUSH1 0x40 MLOAD PUSH32 0x8C379A000000000000000000000000000000000000000000000000000000000 DUP2 MSTORE PUSH1 0x4 ADD PUSH2 0x238 SWAP1 PUSH2 0xC93 JUMP JUMPDEST PUSH1 0x40 MLOAD DUP1 SWAP2 SUB SWAP1 REVERT JUMPDEST PUSH0 DUP3 PUSH1 0x1 PUSH0 CALLER PUSH20 0xFFFFFFFFFFFFFFFFFFFFFFFFFFFFFFFFFFFFFFFF AND PUSH20 0xFFFFFFFFFFFFFFFFFFFFFFFFFFFFFFFFFFFFFFFF AND DUP2 MSTORE PUSH1 0x20 ADD SWAP1 DUP2 MSTORE PUSH1 0x20 ADD PUSH0 KECCAK256 SLOAD EQ SWAP1 POP CALLER PUSH20 0xFFFFFFFFFFFFFFFFFFFFFFFFFFFFFFFFFFFFFFFF AND PUSH32 0x297FCF4A80C00FC75B80BBE3CE4F2C31CAAAEEE3F0B636677D53ED059538E1DD DUP3 PUSH1 0x40 MLOAD PUSH2 0x2CA SWAP2 SWAP1 PUSH2 0x80F JUMP JUMPDEST PUSH1 0x40 MLOAD DUP1 SWAP2 SUB SWAP1 LOG2 DUP1 SWAP2 POP POP SWAP2 SWAP1 POP JUMP JUMPDEST PUSH0 DUP1 PUSH0 DUP1 CALLER PUSH20 0xFFFFFFFFFFFFFFFFFFFFFFFFFFFFFFFFFFFFFFFF AND PUSH20 0xFFFFFFFFFFFFFFFFFFFFFFFFFFFFFFFFFFFFFFFF AND DUP2 MSTORE PUSH1 0x20 ADD SWAP1 DUP2 MSTORE PUSH1 0x20 ADD PUSH0 KECCAK256 PUSH0 ADD DUP1 SLOAD PUSH2 0x326 SWAP1 PUSH2 0xB51 JUMP JUMPDEST SWAP1 POP GT PUSH2 0x368 JUMPI PUSH1 0x40 MLOAD PUSH32 0x8C379A000000000000000000000000000000000000000000000000000000000 DUP2 MSTORE PUSH1 0x4 ADD PUSH2 0x35F SWAP1 PUSH2 0xBCB JUMP JUMPDEST PUSH1 0x40 MLOAD DUP1 SWAP2 SUB SWAP1 REVERT JUMPDEST PUSH0 DUP1 PUSH0 CALLER PUSH20 0xFFFFFFFFFFFFFFFFFFFFFFFFFFFFFFFFFFFFFFFF AND PUSH20 0xFFFFFFFFFFFFFFFFFFFFFFFFFFFFFFFFFFFFFFFF AND DUP2 MSTORE PUSH1 0x20 ADD SWAP1 DUP2 MSTORE PUSH1 0x20 ADD PUSH0 KECCAK256 SWAP1 POP PUSH0 TIMESTAMP SWAP1 POP PUSH1 0x1E DUP3 PUSH1 0x3 ADD SLOAD PUSH2 0x3BC SWAP2 SWAP1 PUSH2 0xC16 JUMP JUMPDEST DUP2 GT PUSH2 0x3FD JUMPI PUSH1 0x40 MLOAD PUSH32 0x8C379A000000000000000000000000000000000000000000000000000000000 DUP2 MSTORE PUSH1 0x4 ADD PUSH2 0x3F4 SWAP1 PUSH2 0xD21 JUMP JUMPDEST PUSH1 0x40 MLOAD DUP1 SWAP2 SUB SWAP1 REVERT JUMPDEST PUSH0 PUSH3 0xF4240 DUP4 PUSH1 0x2 ADD SLOAD DUP4 PUSH1 0x40 MLOAD PUSH1 0x20 ADD PUSH2 0x419 SWAP3 SWAP2 SWAP1 PUSH2 0xD5F JUMP JUMPDEST PUSH1 0x40 MLOAD PUSH1 0x20 DUP2 DUP4 SUB SUB DUP2 MSTORE SWAP1 PUSH1 0x40 MSTORE DUP1 MLOAD SWAP1 PUSH1 0x20 ADD KECCAK256 PUSH0 SHR PUSH2 0x43B SWAP2 SWAP1 PUSH2 0xDB7 JUMP JUMPDEST SWAP1 POP DUP2 DUP4 PUSH1 0x3 ADD DUP2 SWAP1 SSTORE POP DUP1 PUSH1 0x1 PUSH0 CALLER PUSH20 0xFFFFFFFFFFFFFFFFFFFFFFFFFFFFFFFFFFFFFFFF AND PUSH20 0xFFFFFFFFFFFFFFFFFFFFFFFFFFFFFFFFFFFFFFFF AND DUP2 MSTORE PUSH1 0x20 ADD SWAP1 DUP2 MSTORE PUSH1 0x20 ADD PUSH0 KECCAK256 DUP2 SWAP1 SSTORE POP CALLER PUSH20 0xFFFFFFFFFFFFFFFFFFFFFFFFFFFFFFFFFFFFFFFF AND PUSH32 0x7EA1F4AA00F3FE2CEF237CEF49E67B086D030C247442A5CB20BE7C6A807A6C93 DUP3 PUSH1 0x40 MLOAD PUSH2 0x4CE SWAP2 SWAP1 PUSH2 0x837 JUMP JUMPDEST PUSH1 0x40 MLOAD DUP1 SWAP2 SUB SWAP1 LOG2 DUP1 SWAP4 POP POP POP POP SWAP1 JUMP JUMPDEST PUSH1 0x1 PUSH1 0x20 MSTORE DUP1 PUSH0 MSTORE PUSH1 0x40 PUSH0 KECCAK256 PUSH0 SWAP2 POP SWAP1 POP SLOAD DUP2 JUMP JUMPDEST PUSH0 PUSH1 0x20 MSTORE DUP1 PUSH0 MSTORE PUSH1 0x40 PUSH0 KECCAK256 PUSH0 SWAP2 POP SWAP1 POP DUP1 PUSH0 ADD DUP1 SLOAD PUSH2 0x512 SWAP1 PUSH2 0xB51 JUMP JUMPDEST DUP1 PUSH1 0x1F ADD PUSH1 0x20 DUP1 SWAP2 DIV MUL PUSH1 0x20 ADD PUSH1 0x40 MLOAD SWAP1 DUP2 ADD PUSH1 0x40 MSTORE DUP1 SWAP3 SWAP2 SWAP1 DUP2 DUP2 MSTORE PUSH1 0x20 ADD DUP3 DUP1 SLOAD PUSH2 0x53E SWAP1 PUSH2 0xB51 JUMP JUMPDEST DUP1 ISZERO PUSH2 0x589 JUMPI DUP1 PUSH1 0x1F LT PUSH2 0x560 JUMPI PUSH2 0x100 DUP1 DUP4 SLOAD DIV MUL DUP4 MSTORE SWAP2 PUSH1 0x20 ADD SWAP2 PUSH2 0x589 JUMP JUMPDEST DUP3 ADD SWAP2 SWAP1 PUSH0 MSTORE PUSH1 0x20 PUSH0 KECCAK256 SWAP1 JUMPDEST DUP2 SLOAD DUP2 MSTORE SWAP1 PUSH1 0x1 ADD SWAP1 PUSH1 0x20 ADD DUP1 DUP4 GT PUSH2 0x56C JUMPI DUP3 SWAP1 SUB PUSH1 0x1F AND DUP3 ADD SWAP2 JUMPDEST POP POP POP POP POP SWAP1 DUP1 PUSH1 0x1 ADD PUSH0 SWAP1 SLOAD SWAP1 PUSH2 0x100 EXP SWAP1 DIV PUSH20 0xFFFFFFFFFFFFFFFFFFFFFFFFFFFFFFFFFFFFFFFF AND SWAP1 DUP1 PUSH1 0x2 ADD SLOAD SWAP1 DUP1 PUSH1 0x3 ADD SLOAD SWAP1 POP DUP5 JUMP JUMPDEST PUSH0 DUP1 PUSH0 CALLER PUSH20 0xFFFFFFFFFFFFFFFFFFFFFFFFFFFFFFFFFFFFFFFF AND PUSH20 0xFFFFFFFFFFFFFFFFFFFFFFFFFFFFFFFFFFFFFFFF AND DUP2 MSTORE PUSH1 0x20 ADD SWAP1 DUP2 MSTORE PUSH1 0x20 ADD PUSH0 KECCAK256 PUSH0 ADD DUP1 SLOAD PUSH2 0x60E SWAP1 PUSH2 0xB51 JUMP JUMPDEST SWAP1 POP EQ PUSH2 0x650 JUMPI PUSH1 0x40 MLOAD PUSH32 0x8C379A000000000000000000000000000000000000000000000000000000000 DUP2 MSTORE PUSH1 0x4 ADD PUSH2 0x647 SWAP1 PUSH2 0xE31 JUMP JUMPDEST PUSH1 0x40 MLOAD DUP1 SWAP2 SUB SWAP1 REVERT JUMPDEST PUSH1 0x40 MLOAD DUP1 PUSH1 0x80 ADD PUSH1 0x40 MSTORE DUP1 DUP4 DUP2 MSTORE PUSH1 0x20 ADD CALLER PUSH20 0xFFFFFFFFFFFFFFFFFFFFFFFFFFFFFFFFFFFFFFFF AND DUP2 MSTORE PUSH1 0x20 ADD DUP3 DUP2 MSTORE PUSH1 0x20 ADD TIMESTAMP DUP2 MSTORE POP PUSH0 DUP1 CALLER PUSH20 0xFFFFFFFFFFFFFFFFFFFFFFFFFFFFFFFFFFFFFFFF AND PUSH20 0xFFFFFFFFFFFFFFFFFFFFFFFFFFFFFFFFFFFFFFFF AND DUP2 MSTORE PUSH1 0x20 ADD SWAP1 DUP2 MSTORE PUSH1 0x20 ADD PUSH0 KECCAK256 PUSH0 DUP3 ADD MLOAD DUP2 PUSH0 ADD SWAP1 DUP2 PUSH2 0x6D6 SWAP2 SWAP1 PUSH2 0xFEC JUMP JUMPDEST POP PUSH1 0x20 DUP3 ADD MLOAD DUP2 PUSH1 0x1 ADD PUSH0 PUSH2 0x100 EXP DUP2 SLOAD DUP2 PUSH20 0xFFFFFFFFFFFFFFFFFFFFFFFFFFFFFFFFFFFFFFFF MUL NOT AND SWAP1 DUP4 PUSH20 0xFFFFFFFFFFFFFFFFFFFFFFFFFFFFFFFFFFFFFFFF AND MUL OR SWAP1 SSTORE POP PUSH1 0x40 DUP3 ADD MLOAD DUP2 PUSH1 0x2 ADD SSTORE PUSH1 0x60 DUP3 ADD MLOAD DUP2 PUSH1 0x3 ADD SSTORE SWAP1 POP POP CALLER PUSH20 0xFFFFFFFFFFFFFFFFFFFFFFFFFFFFFFFFFFFFFFFF AND PUSH32 0x48CAC28AD4DC618E15F4C2DD5E97751182F166DE97B25618318B2112AA951A2F DUP4 PUSH1 0x40 MLOAD PUSH2 0x77A SWAP2 SWAP1 PUSH2 0x10BB JUMP JUMPDEST PUSH1 0x40 MLOAD DUP1 SWAP2 SUB SWAP1 LOG2 POP POP JUMP JUMPDEST PUSH0 PUSH1 0x40 MLOAD SWAP1 POP SWAP1 JUMP JUMPDEST PUSH0 DUP1 REVERT JUMPDEST PUSH0 DUP1 REVERT JUMPDEST PUSH0 DUP2 SWAP1 POP SWAP2 SWAP1 POP JUMP JUMPDEST PUSH2 0x7A9 DUP2 PUSH2 0x797 JUMP JUMPDEST DUP2 EQ PUSH2 0x7B3 JUMPI PUSH0 DUP1 REVERT JUMPDEST POP JUMP JUMPDEST PUSH0 DUP2 CALLDATALOAD SWAP1 POP PUSH2 0x7C4 DUP2 PUSH2 0x7A0 JUMP JUMPDEST SWAP3 SWAP2 POP POP JUMP JUMPDEST PUSH0 PUSH1 0x20 DUP3 DUP5 SUB SLT ISZERO PUSH2 0x7DF JUMPI PUSH2 0x7DE PUSH2 0x78F JUMP JUMPDEST JUMPDEST PUSH0 PUSH2 0x7EC DUP5 DUP3 DUP6 ADD PUSH2 0x7B6 JUMP JUMPDEST SWAP2 POP POP SWAP3 SWAP2 POP POP JUMP JUMPDEST PUSH0 DUP2 ISZERO ISZERO SWAP1 POP SWAP2 SWAP1 POP JUMP JUMPDEST PUSH2 0x809 DUP2 PUSH2 0x7F5 JUMP JUMPDEST DUP3 MSTORE POP POP JUMP JUMPDEST PUSH0 PUSH1 0x20 DUP3 ADD SWAP1 POP PUSH2 0x822 PUSH0 DUP4 ADD DUP5 PUSH2 0x800 JUMP JUMPDEST SWAP3 SWAP2 POP POP JUMP JUMPDEST PUSH2 0x831 DUP2 PUSH2 0x797 JUMP JUMPDEST DUP3 MSTORE POP POP JUMP JUMPDEST PUSH0 PUSH1 0x20 DUP3 ADD SWAP1 POP PUSH2 0x84A PUSH0 DUP4 ADD DUP5 PUSH2 0x828 JUMP JUMPDEST SWAP3 SWAP2 POP POP JUMP JUMPDEST PUSH0 PUSH20 0xFFFFFFFFFFFFFFFFFFFFFFFFFFFFFFFFFFFFFFFF DUP3 AND SWAP1 POP SWAP2 SWAP1 POP JUMP JUMPDEST PUSH0 PUSH2 0x879 DUP3 PUSH2 0x850 JUMP JUMPDEST SWAP1 POP SWAP2 SWAP1 POP JUMP JUMPDEST PUSH2 0x889 DUP2 PUSH2 0x86F JUMP JUMPDEST DUP2 EQ PUSH2 0x893 JUMPI PUSH0 DUP1 REVERT JUMPDEST POP JUMP JUMPDEST PUSH0 DUP2 CALLDATALOAD SWAP1 POP PUSH2 0x8A4 DUP2 PUSH2 0x880 JUMP JUMPDEST SWAP3 SWAP2 POP POP JUMP JUMPDEST PUSH0 PUSH1 0x20 DUP3 DUP5 SUB SLT ISZERO PUSH2 0x8BF JUMPI PUSH2 0x8BE PUSH2 0x78F JUMP JUMPDEST JUMPDEST PUSH0 PUSH2 0x8CC DUP5 DUP3 DUP6 ADD PUSH2 0x896 JUMP JUMPDEST SWAP2 POP POP SWAP3 SWAP2 POP POP JUMP JUMPDEST PUSH0 DUP2 MLOAD SWAP1 POP SWAP2 SWAP1 POP JUMP JUMPDEST PUSH0 DUP3 DUP3 MSTORE PUSH1 0x20 DUP3 ADD SWAP1 POP SWAP3 SWAP2 POP POP JUMP JUMPDEST DUP3 DUP2 DUP4 MCOPY PUSH0 DUP4 DUP4 ADD MSTORE POP POP POP JUMP JUMPDEST PUSH0 PUSH1 0x1F NOT PUSH1 0x1F DUP4 ADD AND SWAP1 POP SWAP2 SWAP1 POP JUMP JUMPDEST PUSH0 PUSH2 0x917 DUP3 PUSH2 0x8D5 JUMP JUMPDEST PUSH2 0x921 DUP2 DUP6 PUSH2 0x8DF JUMP JUMPDEST SWAP4 POP PUSH2 0x931 DUP2 DUP6 PUSH1 0x20 DUP7 ADD PUSH2 0x8EF JUMP JUMPDEST PUSH2 0x93A DUP2 PUSH2 0x8FD JUMP JUMPDEST DUP5 ADD SWAP2 POP POP SWAP3 SWAP2 POP POP JUMP JUMPDEST PUSH2 0x94E DUP2 PUSH2 0x86F JUMP JUMPDEST DUP3 MSTORE POP POP JUMP JUMPDEST PUSH0 PUSH1 0x80 DUP3 ADD SWAP1 POP DUP2 DUP2 SUB PUSH0 DUP4 ADD MSTORE PUSH2 0x96C DUP2 DUP8 PUSH2 0x90D JUMP JUMPDEST SWAP1 POP PUSH2 0x97B PUSH1 0x20 DUP4 ADD DUP7 PUSH2 0x945 JUMP JUMPDEST PUSH2 0x988 PUSH1 0x40 DUP4 ADD DUP6 PUSH2 0x828 JUMP JUMPDEST PUSH2 0x995 PUSH1 0x60 DUP4 ADD DUP5 PUSH2 0x828 JUMP JUMPDEST SWAP6 SWAP5 POP POP POP POP POP JUMP JUMPDEST PUSH0 DUP1 REVERT JUMPDEST PUSH0 DUP1 REVERT JUMPDEST PUSH32 0x4E487B7100000000000000000000000000000000000000000000000000000000 PUSH0 MSTORE PUSH1 0x41 PUSH1 0x4 MSTORE PUSH1 0x24 PUSH0 REVERT JUMPDEST PUSH2 0x9DC DUP3 PUSH2 0x8FD JUMP JUMPDEST DUP2 ADD DUP2 DUP2 LT PUSH8 0xFFFFFFFFFFFFFFFF DUP3 GT OR ISZERO PUSH2 0x9FB JUMPI PUSH2 0x9FA PUSH2 0x9A6 JUMP JUMPDEST JUMPDEST DUP1 PUSH1 0x40 MSTORE POP POP POP JUMP JUMPDEST PUSH0 PUSH2 0xA0D PUSH2 0x786 JUMP JUMPDEST SWAP1 POP PUSH2 0xA19 DUP3 DUP3 PUSH2 0x9D3 JUMP JUMPDEST SWAP2 SWAP1 POP JUMP JUMPDEST PUSH0 PUSH8 0xFFFFFFFFFFFFFFFF DUP3 GT ISZERO PUSH2 0xA38 JUMPI PUSH2 0xA37 PUSH2 0x9A6 JUMP JUMPDEST JUMPDEST PUSH2 0xA41 DUP3 PUSH2 0x8FD JUMP JUMPDEST SWAP1 POP PUSH1 0x20 DUP2 ADD SWAP1 POP SWAP2 SWAP1 POP JUMP JUMPDEST DUP3 DUP2 DUP4 CALLDATACOPY PUSH0 DUP4 DUP4 ADD MSTORE POP POP POP JUMP JUMPDEST PUSH0 PUSH2 0xA6E PUSH2 0xA69 DUP5 PUSH2 0xA1E JUMP JUMPDEST PUSH2 0xA04 JUMP JUMPDEST SWAP1 POP DUP3 DUP2 MSTORE PUSH1 0x20 DUP2 ADD DUP5 DUP5 DUP5 ADD GT ISZERO PUSH2 0xA8A JUMPI PUSH2 0xA89 PUSH2 0x9A2 JUMP JUMPDEST JUMPDEST PUSH2 0xA95 DUP5 DUP3 DUP6 PUSH2 0xA4E JUMP JUMPDEST POP SWAP4 SWAP3 POP POP POP JUMP JUMPDEST PUSH0 DUP3 PUSH1 0x1F DUP4 ADD SLT PUSH2 0xAB1 JUMPI PUSH2 0xAB0 PUSH2 0x99E JUMP JUMPDEST JUMPDEST DUP2 CALLDATALOAD PUSH2 0xAC1 DUP5 DUP3 PUSH1 0x20 DUP7 ADD PUSH2 0xA5C JUMP JUMPDEST SWAP2 POP POP SWAP3 SWAP2 POP POP JUMP JUMPDEST PUSH0 DUP1 PUSH1 0x40 DUP4 DUP6 SUB SLT ISZERO PUSH2 0xAE0 JUMPI PUSH2 0xADF PUSH2 0x78F JUMP JUMPDEST JUMPDEST PUSH0 DUP4 ADD CALLDATALOAD PUSH8 0xFFFFFFFFFFFFFFFF DUP2 GT ISZERO PUSH2 0xAFD JUMPI PUSH2 0xAFC PUSH2 0x793 JUMP JUMPDEST JUMPDEST PUSH2 0xB09 DUP6 DUP3 DUP7 ADD PUSH2 0xA9D JUMP JUMPDEST SWAP3 POP POP PUSH1 0x20 PUSH2 0xB1A DUP6 DUP3 DUP7 ADD PUSH2 0x7B6 JUMP JUMPDEST SWAP2 POP POP SWAP3 POP SWAP3 SWAP1 POP JUMP JUMPDEST PUSH32 0x4E487B7100000000000000000000000000000000000000000000000000000000 PUSH0 MSTORE PUSH1 0x22 PUSH1 0x4 MSTORE PUSH1 0x24 PUSH0 REVERT JUMPDEST PUSH0 PUSH1 0x2 DUP3 DIV SWAP1 POP PUSH1 0x1 DUP3 AND DUP1 PUSH2 0xB68 JUMPI PUSH1 0x7F DUP3 AND SWAP2 POP JUMPDEST PUSH1 0x20 DUP3 LT DUP2 SUB PUSH2 0xB7B JUMPI PUSH2 0xB7A PUSH2 0xB24 JUMP JUMPDEST JUMPDEST POP SWAP2 SWAP1 POP JUMP JUMPDEST PUSH32 0x55736572206E6F74207265676973746572656400000000000000000000000000 PUSH0 DUP3 ADD MSTORE POP JUMP JUMPDEST PUSH0 PUSH2 0xBB5 PUSH1 0x13 DUP4 PUSH2 0x8DF JUMP JUMPDEST SWAP2 POP PUSH2 0xBC0 DUP3 PUSH2 0xB81 JUMP JUMPDEST PUSH1 0x20 DUP3 ADD SWAP1 POP SWAP2 SWAP1 POP JUMP JUMPDEST PUSH0 PUSH1 0x20 DUP3 ADD SWAP1 POP DUP2 DUP2 SUB PUSH0 DUP4 ADD MSTORE PUSH2 0xBE2 DUP2 PUSH2 0xBA9 JUMP JUMPDEST SWAP1 POP SWAP2 SWAP1 POP JUMP JUMPDEST PUSH32 0x4E487B7100000000000000000000000000000000000000000000000000000000 PUSH0 MSTORE PUSH1 0x11 PUSH1 0x4 MSTORE PUSH1 0x24 PUSH0 REVERT JUMPDEST PUSH0 PUSH2 0xC20 DUP3 PUSH2 0x797 JUMP JUMPDEST SWAP2 POP PUSH2 0xC2B DUP4 PUSH2 0x797 JUMP JUMPDEST SWAP3 POP DUP3 DUP3 ADD SWAP1 POP DUP1 DUP3 GT ISZERO PUSH2 0xC43 JUMPI PUSH2 0xC42 PUSH2 0xBE9 JUMP JUMPDEST JUMPDEST SWAP3 SWAP2 POP POP JUMP JUMPDEST PUSH32 0x4F54502065787069726564000000000000000000000000000000000000000000 PUSH0 DUP3 ADD MSTORE POP JUMP JUMPDEST PUSH0 PUSH2 0xC7D PUSH1 0xB DUP4 PUSH2 0x8DF JUMP JUMPDEST SWAP2 POP PUSH2 0xC88 DUP3 PUSH2 0xC49 JUMP JUMPDEST PUSH1 0x20 DUP3 ADD SWAP1 POP SWAP2 SWAP1 POP JUMP JUMPDEST PUSH0 PUSH1 0x20 DUP3 ADD SWAP1 POP DUP2 DUP2 SUB PUSH0 DUP4 ADD MSTORE PUSH2 0xCAA DUP2 PUSH2 0xC71 JUMP JUMPDEST SWAP1 POP SWAP2 SWAP1 POP JUMP JUMPDEST PUSH32 0x4F54502063616E206F6E6C792062652067656E65726174656420657665727920 PUSH0 DUP3 ADD MSTORE PUSH32 0x3330207365636F6E647300000000000000000000000000000000000000000000 PUSH1 0x20 DUP3 ADD MSTORE POP JUMP JUMPDEST PUSH0 PUSH2 0xD0B PUSH1 0x2A DUP4 PUSH2 0x8DF JUMP JUMPDEST SWAP2 POP PUSH2 0xD16 DUP3 PUSH2 0xCB1 JUMP JUMPDEST PUSH1 0x40 DUP3 ADD SWAP1 POP SWAP2 SWAP1 POP JUMP JUMPDEST PUSH0 PUSH1 0x20 DUP3 ADD SWAP1 POP DUP2 DUP2 SUB PUSH0 DUP4 ADD MSTORE PUSH2 0xD38 DUP2 PUSH2 0xCFF JUMP JUMPDEST SWAP1 POP SWAP2 SWAP1 POP JUMP JUMPDEST PUSH0 DUP2 SWAP1 POP SWAP2 SWAP1 POP JUMP JUMPDEST PUSH2 0xD59 PUSH2 0xD54 DUP3 PUSH2 0x797 JUMP JUMPDEST PUSH2 0xD3F JUMP JUMPDEST DUP3 MSTORE POP POP JUMP JUMPDEST PUSH0 PUSH2 0xD6A DUP3 DUP6 PUSH2 0xD48 JUMP JUMPDEST PUSH1 0x20 DUP3 ADD SWAP2 POP PUSH2 0xD7A DUP3 DUP5 PUSH2 0xD48 JUMP JUMPDEST PUSH1 0x20 DUP3 ADD SWAP2 POP DUP2 SWAP1 POP SWAP4 SWAP3 POP POP POP JUMP JUMPDEST PUSH32 0x4E487B7100000000000000000000000000000000000000000000000000000000 PUSH0 MSTORE PUSH1 0x12 PUSH1 0x4 MSTORE PUSH1 0x24 PUSH0 REVERT JUMPDEST PUSH0 PUSH2 0xDC1 DUP3 PUSH2 0x797 JUMP JUMPDEST SWAP2 POP PUSH2 0xDCC DUP4 PUSH2 0x797 JUMP JUMPDEST SWAP3 POP DUP3 PUSH2 0xDDC JUMPI PUSH2 0xDDB PUSH2 0xD8A JUMP JUMPDEST JUMPDEST DUP3 DUP3 MOD SWAP1 POP SWAP3 SWAP2 POP POP JUMP JUMPDEST PUSH32 0x5573657220616C72656164792072656769737465726564000000000000000000 PUSH0 DUP3 ADD MSTORE POP JUMP JUMPDEST PUSH0 PUSH2 0xE1B PUSH1 0x17 DUP4 PUSH2 0x8DF JUMP JUMPDEST SWAP2 POP PUSH2 0xE26 DUP3 PUSH2 0xDE7 JUMP JUMPDEST PUSH1 0x20 DUP3 ADD SWAP1 POP SWAP2 SWAP1 POP JUMP JUMPDEST PUSH0 PUSH1 0x20 DUP3 ADD SWAP1 POP DUP2 DUP2 SUB PUSH0 DUP4 ADD MSTORE PUSH2 0xE48 DUP2 PUSH2 0xE0F JUMP JUMPDEST SWAP1 POP SWAP2 SWAP1 POP JUMP JUMPDEST PUSH0 DUP2 SWAP1 POP DUP2 PUSH0 MSTORE PUSH1 0x20 PUSH0 KECCAK256 SWAP1 POP SWAP2 SWAP1 POP JUMP JUMPDEST PUSH0 PUSH1 0x20 PUSH1 0x1F DUP4 ADD DIV SWAP1 POP SWAP2 SWAP1 POP JUMP JUMPDEST PUSH0 DUP3 DUP3 SHL SWAP1 POP SWAP3 SWAP2 POP POP JUMP JUMPDEST PUSH0 PUSH1 0x8 DUP4 MUL PUSH2 0xEAB PUSH32 0xFFFFFFFFFFFFFFFFFFFFFFFFFFFFFFFFFFFFFFFFFFFFFFFFFFFFFFFFFFFFFFFF DUP3 PUSH2 0xE70 JUMP JUMPDEST PUSH2 0xEB5 DUP7 DUP4 PUSH2 0xE70 JUMP JUMPDEST SWAP6 POP DUP1 NOT DUP5 AND SWAP4 POP DUP1 DUP7 AND DUP5 OR SWAP3 POP POP POP SWAP4 SWAP3 POP POP POP JUMP JUMPDEST PUSH0 DUP2 SWAP1 POP SWAP2 SWAP1 POP JUMP JUMPDEST PUSH0 PUSH2 0xEF0 PUSH2 0xEEB PUSH2 0xEE6 DUP5 PUSH2 0x797 JUMP JUMPDEST PUSH2 0xECD JUMP JUMPDEST PUSH2 0x797 JUMP JUMPDEST SWAP1 POP SWAP2 SWAP1 POP JUMP JUMPDEST PUSH0 DUP2 SWAP1 POP SWAP2 SWAP1 POP JUMP JUMPDEST PUSH2 0xF09 DUP4 PUSH2 0xED6 JUMP JUMPDEST PUSH2 0xF1D PUSH2 0xF15 DUP3 PUSH2 0xEF7 JUMP JUMPDEST DUP5 DUP5 SLOAD PUSH2 0xE7C JUMP JUMPDEST DUP3 SSTORE POP POP POP POP JUMP JUMPDEST PUSH0 SWAP1 JUMP JUMPDEST PUSH2 0xF31 PUSH2 0xF25 JUMP JUMPDEST PUSH2 0xF3C DUP2 DUP5 DUP5 PUSH2 0xF00 JUMP JUMPDEST POP POP POP JUMP JUMPDEST JUMPDEST DUP2 DUP2 LT ISZERO PUSH2 0xF5F JUMPI PUSH2 0xF54 PUSH0 DUP3 PUSH2 0xF29 JUMP JUMPDEST PUSH1 0x1 DUP2 ADD SWAP1 POP PUSH2 0xF42 JUMP JUMPDEST POP POP JUMP JUMPDEST PUSH1 0x1F DUP3 GT ISZERO PUSH2 0xFA4 JUMPI PUSH2 0xF75 DUP2 PUSH2 0xE4F JUMP JUMPDEST PUSH2 0xF7E DUP5 PUSH2 0xE61 JUMP JUMPDEST DUP2 ADD PUSH1 0x20 DUP6 LT ISZERO PUSH2 0xF8D JUMPI DUP2 SWAP1 POP JUMPDEST PUSH2 0xFA1 PUSH2 0xF99 DUP6 PUSH2 0xE61 JUMP JUMPDEST DUP4 ADD DUP3 PUSH2 0xF41 JUMP JUMPDEST POP POP JUMPDEST POP POP POP JUMP JUMPDEST PUSH0 DUP3 DUP3 SHR SWAP1 POP SWAP3 SWAP2 POP POP JUMP JUMPDEST PUSH0 PUSH2 0xFC4 PUSH0 NOT DUP5 PUSH1 0x8 MUL PUSH2 0xFA9 JUMP JUMPDEST NOT DUP1 DUP4 AND SWAP2 POP POP SWAP3 SWAP2 POP POP JUMP JUMPDEST PUSH0 PUSH2 0xFDC DUP4 DUP4 PUSH2 0xFB5 JUMP JUMPDEST SWAP2 POP DUP3 PUSH1 0x2 MUL DUP3 OR SWAP1 POP SWAP3 SWAP2 POP POP JUMP JUMPDEST PUSH2 0xFF5 DUP3 PUSH2 0x8D5 JUMP JUMPDEST PUSH8 0xFFFFFFFFFFFFFFFF DUP2 GT ISZERO PUSH2 0x100E JUMPI PUSH2 0x100D PUSH2 0x9A6 JUMP JUMPDEST JUMPDEST PUSH2 0x1018 DUP3 SLOAD PUSH2 0xB51 JUMP JUMPDEST PUSH2 0x1023 DUP3 DUP3 DUP6 PUSH2 0xF63 JUMP JUMPDEST PUSH0 PUSH1 0x20 SWAP1 POP PUSH1 0x1F DUP4 GT PUSH1 0x1 DUP2 EQ PUSH2 0x1054 JUMPI PUSH0 DUP5 ISZERO PUSH2 0x1042 JUMPI DUP3 DUP8 ADD MLOAD SWAP1 POP JUMPDEST PUSH2 0x104C DUP6 DUP3 PUSH2 0xFD1 JUMP JUMPDEST DUP7 SSTORE POP PUSH2 0x10B3 JUMP JUMPDEST PUSH1 0x1F NOT DUP5 AND PUSH2 0x1062 DUP7 PUSH2 0xE4F JUMP JUMPDEST PUSH0 JUMPDEST DUP3 DUP2 LT ISZERO PUSH2 0x1089 JUMPI DUP5 DUP10 ADD MLOAD DUP3 SSTORE PUSH1 0x1 DUP3 ADD SWAP2 POP PUSH1 0x20 DUP6 ADD SWAP5 POP PUSH1 0x20 DUP2 ADD SWAP1 POP PUSH2 0x1064 JUMP JUMPDEST DUP7 DUP4 LT ISZERO PUSH2 0x10A6 JUMPI DUP5 DUP10 ADD MLOAD PUSH2 0x10A2 PUSH1 0x1F DUP10 AND DUP3 PUSH2 0xFB5 JUMP JUMPDEST DUP4 SSTORE POP JUMPDEST PUSH1 0x1 PUSH1 0x2 DUP9 MUL ADD DUP9 SSTORE POP POP POP JUMPDEST POP POP POP POP POP POP JUMP JUMPDEST PUSH0 PUSH1 0x20 DUP3 ADD SWAP1 POP DUP2 DUP2 SUB PUSH0 DUP4 ADD MSTORE PUSH2 0x10D3 DUP2 DUP5 PUSH2 0x90D JUMP JUMPDEST SWAP1 POP SWAP3 SWAP2 POP POP JUMP INVALID LOG2 PUSH5 0x6970667358 0x22 SLT KECCAK256 MULMOD 0xB5 PUSH4 0xFBF98CEA 0xDA MUL 0xC1 0xBC SIGNEXTEND DELEGATECALL DELEGATECALL PUSH26 0xD51BAC7044007F31E07812BF2155DC134864736F6C634300081A STOP CALLER "
				},
				"gasEstimates": {
					"creation": {
						"codeDepositCost": "873800",
						"executionCost": "907",
						"totalCost": "874707"
					},
					"external": {
						"authenticate(uint256)": "infinite",
						"generateOtp()": "infinite",
						"lastOtpGenerated(address)": "2824",
						"register(string,uint256)": "infinite",
						"users(address)": "infinite"
					}
				},
				"methodIdentifiers": {
					"authenticate(uint256)": "195ad926",
					"generateOtp()": "405efc15",
					"lastOtpGenerated(address)": "7b0be3d7",
					"register(string,uint256)": "ea87152b",
					"users(address)": "a87430ba"
				}
			},
			"storageLayout": {
				"storage": [
					{
						"astId": 331,
						"contract": "Auth.sol/Authentication.sol:OTPSystem",
						"label": "users",
						"offset": 0,
						"slot": "0",
						"type": "t_mapping(t_address,t_struct(User)326_storage)"
					},
					{
						"astId": 335,
						"contract": "Auth.sol/Authentication.sol:OTPSystem",
						"label": "lastOtpGenerated",
						"offset": 0,
						"slot": "1",
						"type": "t_mapping(t_address,t_uint256)"
					}
				],
				"types": {
					"t_address": {
						"encoding": "inplace",
						"label": "address",
						"numberOfBytes": "20"
					},
					"t_mapping(t_address,t_struct(User)326_storage)": {
						"encoding": "mapping",
						"key": "t_address",
						"label": "mapping(address => struct OTPSystem.User)",
						"numberOfBytes": "32",
						"value": "t_struct(User)326_storage"
					},
					"t_mapping(t_address,t_uint256)": {
						"encoding": "mapping",
						"key": "t_address",
						"label": "mapping(address => uint256)",
						"numberOfBytes": "32",
						"value": "t_uint256"
					},
					"t_string_storage": {
						"encoding": "bytes",
						"label": "string",
						"numberOfBytes": "32"
					},
					"t_struct(User)326_storage": {
						"encoding": "inplace",
						"label": "struct OTPSystem.User",
						"members": [
							{
								"astId": 319,
								"contract": "Auth.sol/Authentication.sol:OTPSystem",
								"label": "username",
								"offset": 0,
								"slot": "0",
								"type": "t_string_storage"
							},
							{
								"astId": 321,
								"contract": "Auth.sol/Authentication.sol:OTPSystem",
								"label": "publicKey",
								"offset": 0,
								"slot": "1",
								"type": "t_address"
							},
							{
								"astId": 323,
								"contract": "Auth.sol/Authentication.sol:OTPSystem",
								"label": "otpSeed",
								"offset": 0,
								"slot": "2",
								"type": "t_uint256"
							},
							{
								"astId": 325,
								"contract": "Auth.sol/Authentication.sol:OTPSystem",
								"label": "lastOtpTimestamp",
								"offset": 0,
								"slot": "3",
								"type": "t_uint256"
							}
						],
						"numberOfBytes": "128"
					},
					"t_uint256": {
						"encoding": "inplace",
						"label": "uint256",
						"numberOfBytes": "32"
					}
				}
			},
			"userdoc": {
				"kind": "user",
				"methods": {},
				"version": 1
			}
		}
	}
}